{
  "contractName": "Doves",
  "abi": [
    {
      "inputs": [
        {
          "internalType": "string",
          "name": "_name",
          "type": "string"
        },
        {
          "internalType": "string",
          "name": "_symbol",
          "type": "string"
        },
        {
          "internalType": "uint256",
          "name": "_royalityFee",
          "type": "uint256"
        },
        {
          "internalType": "address",
          "name": "_artist",
          "type": "address"
        }
      ],
      "stateMutability": "nonpayable",
      "type": "constructor"
    },
    {
      "anonymous": false,
      "inputs": [
        {
          "indexed": true,
          "internalType": "address",
          "name": "owner",
          "type": "address"
        },
        {
          "indexed": true,
          "internalType": "address",
          "name": "approved",
          "type": "address"
        },
        {
          "indexed": true,
          "internalType": "uint256",
          "name": "tokenId",
          "type": "uint256"
        }
      ],
      "name": "Approval",
      "type": "event"
    },
    {
      "anonymous": false,
      "inputs": [
        {
          "indexed": true,
          "internalType": "address",
          "name": "owner",
          "type": "address"
        },
        {
          "indexed": true,
          "internalType": "address",
          "name": "operator",
          "type": "address"
        },
        {
          "indexed": false,
          "internalType": "bool",
          "name": "approved",
          "type": "bool"
        }
      ],
      "name": "ApprovalForAll",
      "type": "event"
    },
    {
      "anonymous": false,
      "inputs": [
        {
          "indexed": true,
          "internalType": "address",
          "name": "previousOwner",
          "type": "address"
        },
        {
          "indexed": true,
          "internalType": "address",
          "name": "newOwner",
          "type": "address"
        }
      ],
      "name": "OwnershipTransferred",
      "type": "event"
    },
    {
      "anonymous": false,
      "inputs": [
        {
          "indexed": false,
          "internalType": "uint256",
          "name": "id",
          "type": "uint256"
        },
        {
          "indexed": true,
          "internalType": "address",
          "name": "owner",
          "type": "address"
        },
        {
          "indexed": false,
          "internalType": "uint256",
          "name": "cost",
          "type": "uint256"
        },
        {
          "indexed": false,
          "internalType": "string",
          "name": "metadataURI",
          "type": "string"
        },
        {
          "indexed": false,
          "internalType": "uint256",
          "name": "timestamp",
          "type": "uint256"
        }
      ],
      "name": "Sale",
      "type": "event"
    },
    {
      "anonymous": false,
      "inputs": [
        {
          "indexed": true,
          "internalType": "address",
          "name": "from",
          "type": "address"
        },
        {
          "indexed": true,
          "internalType": "address",
          "name": "to",
          "type": "address"
        },
        {
          "indexed": true,
          "internalType": "uint256",
          "name": "tokenId",
          "type": "uint256"
        }
      ],
      "name": "Transfer",
      "type": "event"
    },
    {
      "inputs": [
        {
          "internalType": "address",
          "name": "to",
          "type": "address"
        },
        {
          "internalType": "uint256",
          "name": "tokenId",
          "type": "uint256"
        }
      ],
      "name": "approve",
      "outputs": [],
      "stateMutability": "nonpayable",
      "type": "function"
    },
    {
      "inputs": [],
      "name": "artist",
      "outputs": [
        {
          "internalType": "address",
          "name": "",
          "type": "address"
        }
      ],
      "stateMutability": "view",
      "type": "function",
      "constant": true
    },
    {
      "inputs": [
        {
          "internalType": "address",
          "name": "owner",
          "type": "address"
        }
      ],
      "name": "balanceOf",
      "outputs": [
        {
          "internalType": "uint256",
          "name": "",
          "type": "uint256"
        }
      ],
      "stateMutability": "view",
      "type": "function",
      "constant": true
    },
    {
      "inputs": [],
      "name": "cost",
      "outputs": [
        {
          "internalType": "uint256",
          "name": "",
          "type": "uint256"
        }
      ],
      "stateMutability": "view",
      "type": "function",
      "constant": true
    },
    {
      "inputs": [
        {
          "internalType": "uint256",
          "name": "tokenId",
          "type": "uint256"
        }
      ],
      "name": "getApproved",
      "outputs": [
        {
          "internalType": "address",
          "name": "",
          "type": "address"
        }
      ],
      "stateMutability": "view",
      "type": "function",
      "constant": true
    },
    {
      "inputs": [
        {
          "internalType": "uint256",
          "name": "",
          "type": "uint256"
        }
      ],
      "name": "holderOf",
      "outputs": [
        {
          "internalType": "address",
          "name": "",
          "type": "address"
        }
      ],
      "stateMutability": "view",
      "type": "function",
      "constant": true
    },
    {
      "inputs": [
        {
          "internalType": "address",
          "name": "owner",
          "type": "address"
        },
        {
          "internalType": "address",
          "name": "operator",
          "type": "address"
        }
      ],
      "name": "isApprovedForAll",
      "outputs": [
        {
          "internalType": "bool",
          "name": "",
          "type": "bool"
        }
      ],
      "stateMutability": "view",
      "type": "function",
      "constant": true
    },
    {
      "inputs": [],
      "name": "name",
      "outputs": [
        {
          "internalType": "string",
          "name": "",
          "type": "string"
        }
      ],
      "stateMutability": "view",
      "type": "function",
      "constant": true
    },
    {
      "inputs": [],
      "name": "owner",
      "outputs": [
        {
          "internalType": "address",
          "name": "",
          "type": "address"
        }
      ],
      "stateMutability": "view",
      "type": "function",
      "constant": true
    },
    {
      "inputs": [
        {
          "internalType": "uint256",
          "name": "tokenId",
          "type": "uint256"
        }
      ],
      "name": "ownerOf",
      "outputs": [
        {
          "internalType": "address",
          "name": "",
          "type": "address"
        }
      ],
      "stateMutability": "view",
      "type": "function",
      "constant": true
    },
    {
      "inputs": [],
      "name": "renounceOwnership",
      "outputs": [],
      "stateMutability": "nonpayable",
      "type": "function"
    },
    {
      "inputs": [],
      "name": "royalityFee",
      "outputs": [
        {
          "internalType": "uint256",
          "name": "",
          "type": "uint256"
        }
      ],
      "stateMutability": "view",
      "type": "function",
      "constant": true
    },
    {
      "inputs": [
        {
          "internalType": "address",
          "name": "from",
          "type": "address"
        },
        {
          "internalType": "address",
          "name": "to",
          "type": "address"
        },
        {
          "internalType": "uint256",
          "name": "tokenId",
          "type": "uint256"
        }
      ],
      "name": "safeTransferFrom",
      "outputs": [],
      "stateMutability": "payable",
      "type": "function",
      "payable": true
    },
    {
      "inputs": [
        {
          "internalType": "address",
          "name": "from",
          "type": "address"
        },
        {
          "internalType": "address",
          "name": "to",
          "type": "address"
        },
        {
          "internalType": "uint256",
          "name": "tokenId",
          "type": "uint256"
        },
        {
          "internalType": "bytes",
          "name": "_data",
          "type": "bytes"
        }
      ],
      "name": "safeTransferFrom",
      "outputs": [],
      "stateMutability": "payable",
      "type": "function",
      "payable": true
    },
    {
      "inputs": [
        {
          "internalType": "address",
          "name": "operator",
          "type": "address"
        },
        {
          "internalType": "bool",
          "name": "approved",
          "type": "bool"
        }
      ],
      "name": "setApprovalForAll",
      "outputs": [],
      "stateMutability": "nonpayable",
      "type": "function"
    },
    {
      "inputs": [],
      "name": "supply",
      "outputs": [
        {
          "internalType": "uint256",
          "name": "",
          "type": "uint256"
        }
      ],
      "stateMutability": "view",
      "type": "function",
      "constant": true
    },
    {
      "inputs": [
        {
          "internalType": "bytes4",
          "name": "interfaceId",
          "type": "bytes4"
        }
      ],
      "name": "supportsInterface",
      "outputs": [
        {
          "internalType": "bool",
          "name": "",
          "type": "bool"
        }
      ],
      "stateMutability": "view",
      "type": "function",
      "constant": true
    },
    {
      "inputs": [],
      "name": "symbol",
      "outputs": [
        {
          "internalType": "string",
          "name": "",
          "type": "string"
        }
      ],
      "stateMutability": "view",
      "type": "function",
      "constant": true
    },
    {
      "inputs": [
        {
          "internalType": "uint256",
          "name": "index",
          "type": "uint256"
        }
      ],
      "name": "tokenByIndex",
      "outputs": [
        {
          "internalType": "uint256",
          "name": "",
          "type": "uint256"
        }
      ],
      "stateMutability": "view",
      "type": "function",
      "constant": true
    },
    {
      "inputs": [
        {
          "internalType": "address",
          "name": "owner",
          "type": "address"
        },
        {
          "internalType": "uint256",
          "name": "index",
          "type": "uint256"
        }
      ],
      "name": "tokenOfOwnerByIndex",
      "outputs": [
        {
          "internalType": "uint256",
          "name": "",
          "type": "uint256"
        }
      ],
      "stateMutability": "view",
      "type": "function",
      "constant": true
    },
    {
      "inputs": [
        {
          "internalType": "uint256",
          "name": "tokenId",
          "type": "uint256"
        }
      ],
      "name": "tokenURI",
      "outputs": [
        {
          "internalType": "string",
          "name": "",
          "type": "string"
        }
      ],
      "stateMutability": "view",
      "type": "function",
      "constant": true
    },
    {
      "inputs": [],
      "name": "totalSupply",
      "outputs": [
        {
          "internalType": "uint256",
          "name": "",
          "type": "uint256"
        }
      ],
      "stateMutability": "view",
      "type": "function",
      "constant": true
    },
    {
      "inputs": [],
      "name": "totalTx",
      "outputs": [
        {
          "internalType": "uint256",
          "name": "",
          "type": "uint256"
        }
      ],
      "stateMutability": "view",
      "type": "function",
      "constant": true
    },
    {
      "inputs": [
        {
          "internalType": "address",
          "name": "from",
          "type": "address"
        },
        {
          "internalType": "address",
          "name": "to",
          "type": "address"
        },
        {
          "internalType": "uint256",
          "name": "tokenId",
          "type": "uint256"
        }
      ],
      "name": "transferFrom",
      "outputs": [],
      "stateMutability": "payable",
      "type": "function",
      "payable": true
    },
    {
      "inputs": [
        {
          "internalType": "address",
          "name": "newOwner",
          "type": "address"
        }
      ],
      "name": "transferOwnership",
      "outputs": [],
      "stateMutability": "nonpayable",
      "type": "function"
    },
    {
      "inputs": [
        {
          "internalType": "string",
          "name": "title",
          "type": "string"
        },
        {
          "internalType": "string",
          "name": "description",
          "type": "string"
        },
        {
          "internalType": "string",
          "name": "metadataURI",
          "type": "string"
        },
        {
          "internalType": "uint256",
          "name": "salesPrice",
          "type": "uint256"
        }
      ],
      "name": "payToMint",
      "outputs": [],
      "stateMutability": "payable",
      "type": "function",
      "payable": true
    },
    {
      "inputs": [
        {
          "internalType": "uint256",
          "name": "id",
          "type": "uint256"
        }
      ],
      "name": "payToBuy",
      "outputs": [],
      "stateMutability": "payable",
      "type": "function",
      "payable": true
    },
    {
      "inputs": [
        {
          "internalType": "uint256",
          "name": "id",
          "type": "uint256"
        },
        {
          "internalType": "uint256",
          "name": "newPrice",
          "type": "uint256"
        }
      ],
      "name": "changePrice",
      "outputs": [
        {
          "internalType": "bool",
          "name": "",
          "type": "bool"
        }
      ],
      "stateMutability": "nonpayable",
      "type": "function"
    },
    {
      "inputs": [],
      "name": "getAllNFTs",
      "outputs": [
        {
          "components": [
            {
              "internalType": "uint256",
              "name": "id",
              "type": "uint256"
            },
            {
              "internalType": "address",
              "name": "owner",
              "type": "address"
            },
            {
              "internalType": "uint256",
              "name": "cost",
              "type": "uint256"
            },
            {
              "internalType": "string",
              "name": "title",
              "type": "string"
            },
            {
              "internalType": "string",
              "name": "description",
              "type": "string"
            },
            {
              "internalType": "string",
              "name": "metadataURI",
              "type": "string"
            },
            {
              "internalType": "uint256",
              "name": "timestamp",
              "type": "uint256"
            }
          ],
          "internalType": "struct Doves.TransactionStruct[]",
          "name": "",
          "type": "tuple[]"
        }
      ],
      "stateMutability": "view",
      "type": "function",
      "constant": true
    },
    {
      "inputs": [
        {
          "internalType": "uint256",
          "name": "id",
          "type": "uint256"
        }
      ],
      "name": "getNFT",
      "outputs": [
        {
          "components": [
            {
              "internalType": "uint256",
              "name": "id",
              "type": "uint256"
            },
            {
              "internalType": "address",
              "name": "owner",
              "type": "address"
            },
            {
              "internalType": "uint256",
              "name": "cost",
              "type": "uint256"
            },
            {
              "internalType": "string",
              "name": "title",
              "type": "string"
            },
            {
              "internalType": "string",
              "name": "description",
              "type": "string"
            },
            {
              "internalType": "string",
              "name": "metadataURI",
              "type": "string"
            },
            {
              "internalType": "uint256",
              "name": "timestamp",
              "type": "uint256"
            }
          ],
          "internalType": "struct Doves.TransactionStruct",
          "name": "",
          "type": "tuple"
        }
      ],
      "stateMutability": "view",
      "type": "function",
      "constant": true
    },
    {
      "inputs": [],
      "name": "getAllTransactions",
      "outputs": [
        {
          "components": [
            {
              "internalType": "uint256",
              "name": "id",
              "type": "uint256"
            },
            {
              "internalType": "address",
              "name": "owner",
              "type": "address"
            },
            {
              "internalType": "uint256",
              "name": "cost",
              "type": "uint256"
            },
            {
              "internalType": "string",
              "name": "title",
              "type": "string"
            },
            {
              "internalType": "string",
              "name": "description",
              "type": "string"
            },
            {
              "internalType": "string",
              "name": "metadataURI",
              "type": "string"
            },
            {
              "internalType": "uint256",
              "name": "timestamp",
              "type": "uint256"
            }
          ],
          "internalType": "struct Doves.TransactionStruct[]",
          "name": "",
          "type": "tuple[]"
        }
      ],
      "stateMutability": "view",
      "type": "function",
      "constant": true
    }
  ],
  "bytecode": "0x60806040526000600f556000601055662386f26fc100006011553480156200002657600080fd5b50604051620058403803806200584083398181016040528101906200004c9190620004af565b8383816000908051906020019062000066929190620001c2565b5080600190805190602001906200007f929190620001c2565b505050620000a262000096620000f460201b60201c565b620000fc60201b60201c565b81600e8190555080600d60006101000a81548173ffffffffffffffffffffffffffffffffffffffff021916908373ffffffffffffffffffffffffffffffffffffffff16021790555050505050620005c4565b600033905090565b6000600a60009054906101000a900473ffffffffffffffffffffffffffffffffffffffff16905081600a60006101000a81548173ffffffffffffffffffffffffffffffffffffffff021916908373ffffffffffffffffffffffffffffffffffffffff1602179055508173ffffffffffffffffffffffffffffffffffffffff168173ffffffffffffffffffffffffffffffffffffffff167f8be0079c531659141344cd1fd0a4f28419497f9722a3daafe3b4186f6b6457e060405160405180910390a35050565b828054620001d0906200058e565b90600052602060002090601f016020900481019282620001f4576000855562000240565b82601f106200020f57805160ff191683800117855562000240565b8280016001018555821562000240579182015b828111156200023f57825182559160200191906001019062000222565b5b5090506200024f919062000253565b5090565b5b808211156200026e57600081600090555060010162000254565b5090565b6000604051905090565b600080fd5b600080fd5b600080fd5b600080fd5b6000601f19601f8301169050919050565b7f4e487b7100000000000000000000000000000000000000000000000000000000600052604160045260246000fd5b620002db8262000290565b810181811067ffffffffffffffff82111715620002fd57620002fc620002a1565b5b80604052505050565b60006200031262000272565b9050620003208282620002d0565b919050565b600067ffffffffffffffff821115620003435762000342620002a1565b5b6200034e8262000290565b9050602081019050919050565b60005b838110156200037b5780820151818401526020810190506200035e565b838111156200038b576000848401525b50505050565b6000620003a8620003a28462000325565b62000306565b905082815260208101848484011115620003c757620003c66200028b565b5b620003d48482856200035b565b509392505050565b600082601f830112620003f457620003f362000286565b5b81516200040684826020860162000391565b91505092915050565b6000819050919050565b62000424816200040f565b81146200043057600080fd5b50565b600081519050620004448162000419565b92915050565b600073ffffffffffffffffffffffffffffffffffffffff82169050919050565b600062000477826200044a565b9050919050565b62000489816200046a565b81146200049557600080fd5b50565b600081519050620004a9816200047e565b92915050565b60008060008060808587031215620004cc57620004cb6200027c565b5b600085015167ffffffffffffffff811115620004ed57620004ec62000281565b5b620004fb87828801620003dc565b945050602085015167ffffffffffffffff8111156200051f576200051e62000281565b5b6200052d87828801620003dc565b9350506040620005408782880162000433565b9250506060620005538782880162000498565b91505092959194509250565b7f4e487b7100000000000000000000000000000000000000000000000000000000600052602260045260246000fd5b60006002820490506001821680620005a757607f821691505b60208210811415620005be57620005bd6200055f565b5b50919050565b61526c80620005d46000396000f3fe6080604052600436106101d85760003560e01c80636352211e11610102578063a22cb46511610095578063dbacc23711610064578063dbacc237146106a5578063e0391b09146106e2578063e985e9c51461070d578063f2fde38b1461074a576101d8565b8063a22cb465146105e6578063b3de019c1461060f578063b88d4fde1461064c578063c87b56dd14610668576101d8565b8063799c0c1e116100d1578063799c0c1e146105585780638da5cb5b1461057457806395d89b411461059f5780639ba4b017146105ca576101d8565b80636352211e1461049c57806370a08231146104d9578063715018a6146105165780637220cf391461052d576101d8565b806323b872dd1161017a57806342842e0e1161014957806342842e0e146103db57806343bc1612146103f75780634f6ccce714610422578063576f7ea71461045f576101d8565b806323b872dd1461032c57806327506f53146103485780632f745c5914610373578063326bb4ad146103b0576101d8565b8063081812fc116101b6578063081812fc14610270578063095ea7b3146102ad57806313faede6146102d657806318160ddd14610301576101d8565b806301ffc9a7146101dd578063047fc9aa1461021a57806306fdde0314610245575b600080fd5b3480156101e957600080fd5b5061020460048036038101906101ff9190613740565b610773565b6040516102119190613788565b60405180910390f35b34801561022657600080fd5b5061022f6107ed565b60405161023c91906137bc565b60405180910390f35b34801561025157600080fd5b5061025a6107f3565b6040516102679190613870565b60405180910390f35b34801561027c57600080fd5b50610297600480360381019061029291906138be565b610885565b6040516102a4919061392c565b60405180910390f35b3480156102b957600080fd5b506102d460048036038101906102cf9190613973565b61090a565b005b3480156102e257600080fd5b506102eb610a22565b6040516102f891906137bc565b60405180910390f35b34801561030d57600080fd5b50610316610a28565b60405161032391906137bc565b60405180910390f35b610346600480360381019061034191906139b3565b610a35565b005b34801561035457600080fd5b5061035d610a95565b60405161036a9190613bda565b60405180910390f35b34801561037f57600080fd5b5061039a60048036038101906103959190613973565b610d1e565b6040516103a791906137bc565b60405180910390f35b3480156103bc57600080fd5b506103c5610dc3565b6040516103d291906137bc565b60405180910390f35b6103f560048036038101906103f091906139b3565b610dc9565b005b34801561040357600080fd5b5061040c610de9565b604051610419919061392c565b60405180910390f35b34801561042e57600080fd5b50610449600480360381019061044491906138be565b610e0f565b60405161045691906137bc565b60405180910390f35b34801561046b57600080fd5b50610486600480360381019061048191906138be565b610e80565b6040516104939190613ca6565b60405180910390f35b3480156104a857600080fd5b506104c360048036038101906104be91906138be565b6110f2565b6040516104d0919061392c565b60405180910390f35b3480156104e557600080fd5b5061050060048036038101906104fb9190613cc8565b6111a4565b60405161050d91906137bc565b60405180910390f35b34801561052257600080fd5b5061052b61125c565b005b34801561053957600080fd5b50610542611270565b60405161054f91906137bc565b60405180910390f35b610572600480360381019061056d9190613e2a565b611276565b005b34801561058057600080fd5b506105896115d3565b604051610596919061392c565b60405180910390f35b3480156105ab57600080fd5b506105b46115fd565b6040516105c19190613870565b60405180910390f35b6105e460048036038101906105df91906138be565b61168f565b005b3480156105f257600080fd5b5061060d60048036038101906106089190613f11565b611ce4565b005b34801561061b57600080fd5b5061063660048036038101906106319190613f51565b611cfa565b6040516106439190613788565b60405180910390f35b61066660048036038101906106619190614032565b611e3d565b005b34801561067457600080fd5b5061068f600480360381019061068a91906138be565b611e9f565b60405161069c9190613870565b60405180910390f35b3480156106b157600080fd5b506106cc60048036038101906106c791906138be565b611f46565b6040516106d9919061392c565b60405180910390f35b3480156106ee57600080fd5b506106f7611f79565b6040516107049190613bda565b60405180910390f35b34801561071957600080fd5b50610734600480360381019061072f91906140b5565b612202565b6040516107419190613788565b60405180910390f35b34801561075657600080fd5b50610771600480360381019061076c9190613cc8565b612296565b005b60007f780e9d63000000000000000000000000000000000000000000000000000000007bffffffffffffffffffffffffffffffffffffffffffffffffffffffff1916827bffffffffffffffffffffffffffffffffffffffffffffffffffffffff191614806107e657506107e58261231a565b5b9050919050565b600f5481565b60606000805461080290614124565b80601f016020809104026020016040519081016040528092919081815260200182805461082e90614124565b801561087b5780601f106108505761010080835404028352916020019161087b565b820191906000526020600020905b81548152906001019060200180831161085e57829003601f168201915b5050505050905090565b6000610890826123fc565b6108cf576040517f08c379a00000000000000000000000000000000000000000000000000000000081526004016108c6906141c8565b60405180910390fd5b6004600083815260200190815260200160002060009054906101000a900473ffffffffffffffffffffffffffffffffffffffff169050919050565b6000610915826110f2565b90508073ffffffffffffffffffffffffffffffffffffffff168373ffffffffffffffffffffffffffffffffffffffff161415610986576040517f08c379a000000000000000000000000000000000000000000000000000000000815260040161097d9061425a565b60405180910390fd5b8073ffffffffffffffffffffffffffffffffffffffff166109a5612468565b73ffffffffffffffffffffffffffffffffffffffff1614806109d457506109d3816109ce612468565b612202565b5b610a13576040517f08c379a0000000000000000000000000000000000000000000000000000000008152600401610a0a906142ec565b60405180910390fd5b610a1d8383612470565b505050565b60115481565b6000600880549050905090565b610a46610a40612468565b82612529565b610a85576040517f08c379a0000000000000000000000000000000000000000000000000000000008152600401610a7c9061437e565b60405180910390fd5b610a90838383612607565b505050565b60606012805480602002602001604051908101604052809291908181526020016000905b82821015610d1557838290600052602060002090600702016040518060e0016040529081600082015481526020016001820160009054906101000a900473ffffffffffffffffffffffffffffffffffffffff1673ffffffffffffffffffffffffffffffffffffffff1673ffffffffffffffffffffffffffffffffffffffff16815260200160028201548152602001600382018054610b5690614124565b80601f0160208091040260200160405190810160405280929190818152602001828054610b8290614124565b8015610bcf5780601f10610ba457610100808354040283529160200191610bcf565b820191906000526020600020905b815481529060010190602001808311610bb257829003601f168201915b50505050508152602001600482018054610be890614124565b80601f0160208091040260200160405190810160405280929190818152602001828054610c1490614124565b8015610c615780601f10610c3657610100808354040283529160200191610c61565b820191906000526020600020905b815481529060010190602001808311610c4457829003601f168201915b50505050508152602001600582018054610c7a90614124565b80601f0160208091040260200160405190810160405280929190818152602001828054610ca690614124565b8015610cf35780601f10610cc857610100808354040283529160200191610cf3565b820191906000526020600020905b815481529060010190602001808311610cd657829003601f168201915b5050505050815260200160068201548152505081526020019060010190610ab9565b50505050905090565b6000610d29836111a4565b8210610d6a576040517f08c379a0000000000000000000000000000000000000000000000000000000008152600401610d6190614410565b60405180910390fd5b600660008473ffffffffffffffffffffffffffffffffffffffff1673ffffffffffffffffffffffffffffffffffffffff168152602001908152602001600020600083815260200190815260200160002054905092915050565b600e5481565b610de483838360405180602001604052806000815250611e3d565b505050565b600d60009054906101000a900473ffffffffffffffffffffffffffffffffffffffff1681565b6000610e19610a28565b8210610e5a576040517f08c379a0000000000000000000000000000000000000000000000000000000008152600401610e51906144a2565b60405180910390fd5b60088281548110610e6e57610e6d6144c2565b5b90600052602060002001549050919050565b610e886135de565b6013600183610e979190614520565b81548110610ea857610ea76144c2565b5b90600052602060002090600702016040518060e0016040529081600082015481526020016001820160009054906101000a900473ffffffffffffffffffffffffffffffffffffffff1673ffffffffffffffffffffffffffffffffffffffff1673ffffffffffffffffffffffffffffffffffffffff16815260200160028201548152602001600382018054610f3b90614124565b80601f0160208091040260200160405190810160405280929190818152602001828054610f6790614124565b8015610fb45780601f10610f8957610100808354040283529160200191610fb4565b820191906000526020600020905b815481529060010190602001808311610f9757829003601f168201915b50505050508152602001600482018054610fcd90614124565b80601f0160208091040260200160405190810160405280929190818152602001828054610ff990614124565b80156110465780601f1061101b57610100808354040283529160200191611046565b820191906000526020600020905b81548152906001019060200180831161102957829003601f168201915b5050505050815260200160058201805461105f90614124565b80601f016020809104026020016040519081016040528092919081815260200182805461108b90614124565b80156110d85780601f106110ad576101008083540402835291602001916110d8565b820191906000526020600020905b8154815290600101906020018083116110bb57829003601f168201915b505050505081526020016006820154815250509050919050565b6000806002600084815260200190815260200160002060009054906101000a900473ffffffffffffffffffffffffffffffffffffffff169050600073ffffffffffffffffffffffffffffffffffffffff168173ffffffffffffffffffffffffffffffffffffffff16141561119b576040517f08c379a0000000000000000000000000000000000000000000000000000000008152600401611192906145c6565b60405180910390fd5b80915050919050565b60008073ffffffffffffffffffffffffffffffffffffffff168273ffffffffffffffffffffffffffffffffffffffff161415611215576040517f08c379a000000000000000000000000000000000000000000000000000000000815260040161120c90614658565b60405180910390fd5b600360008373ffffffffffffffffffffffffffffffffffffffff1673ffffffffffffffffffffffffffffffffffffffff168152602001908152602001600020549050919050565b611264612863565b61126e60006128e1565b565b60105481565b6011543410156112bb576040517f08c379a00000000000000000000000000000000000000000000000000000000081526004016112b2906146c4565b60405180910390fd5b6000600b836040516112cd9190614720565b908152602001604051809103902060009054906101000a900460ff1660ff161461132c576040517f08c379a000000000000000000000000000000000000000000000000000000000815260040161132390614783565b60405180910390fd5b60006064600e543461133e91906147a3565b611348919061482c565b9050611376600d60009054906101000a900473ffffffffffffffffffffffffffffffffffffffff16826129a7565b6113926113816115d3565b823461138d9190614520565b6129a7565b600f60008154809291906113a59061485d565b919050555060136040518060e00160405280600f5481526020013373ffffffffffffffffffffffffffffffffffffffff1681526020018481526020018781526020018681526020018581526020014281525090806001815401808255809150506001900390600052602060002090600702016000909190919091506000820151816000015560208201518160010160006101000a81548173ffffffffffffffffffffffffffffffffffffffff021916908373ffffffffffffffffffffffffffffffffffffffff160217905550604082015181600201556060820151816003019080519060200190611497929190613631565b5060808201518160040190805190602001906114b4929190613631565b5060a08201518160050190805190602001906114d1929190613631565b5060c0820151816006015550503373ffffffffffffffffffffffffffffffffffffffff167fb9508407a6eccb191d8da3286f4173697cf95604e9ea192fe5ab7c862b5221f6600f5434864260405161152c94939291906148a6565b60405180910390a261154033600f54612a22565b6001600b846040516115529190614720565b908152602001604051809103902060006101000a81548160ff021916908360ff16021790555033600c6000600f54815260200190815260200160002060006101000a81548173ffffffffffffffffffffffffffffffffffffffff021916908373ffffffffffffffffffffffffffffffffffffffff1602179055505050505050565b6000600a60009054906101000a900473ffffffffffffffffffffffffffffffffffffffff16905090565b60606001805461160c90614124565b80601f016020809104026020016040519081016040528092919081815260200182805461163890614124565b80156116855780601f1061165a57610100808354040283529160200191611685565b820191906000526020600020905b81548152906001019060200180831161166857829003601f168201915b5050505050905090565b601360018261169e9190614520565b815481106116af576116ae6144c2565b5b906000526020600020906007020160020154341015611703576040517f08c379a00000000000000000000000000000000000000000000000000000000081526004016116fa9061493e565b60405180910390fd5b60136001826117129190614520565b81548110611723576117226144c2565b5b906000526020600020906007020160010160009054906101000a900473ffffffffffffffffffffffffffffffffffffffff1673ffffffffffffffffffffffffffffffffffffffff163373ffffffffffffffffffffffffffffffffffffffff1614156117c3576040517f08c379a00000000000000000000000000000000000000000000000000000000081526004016117ba906149aa565b60405180910390fd5b60006064600e54346117d591906147a3565b6117df919061482c565b905061180d600d60009054906101000a900473ffffffffffffffffffffffffffffffffffffffff16826129a7565b611873601360018461181f9190614520565b815481106118305761182f6144c2565b5b906000526020600020906007020160010160009054906101000a900473ffffffffffffffffffffffffffffffffffffffff16823461186e9190614520565b6129a7565b601060008154809291906118869061485d565b919050555060126040518060e0016040528060105481526020013373ffffffffffffffffffffffffffffffffffffffff16815260200134815260200160136001866118d19190614520565b815481106118e2576118e16144c2565b5b906000526020600020906007020160030180546118fe90614124565b80601f016020809104026020016040519081016040528092919081815260200182805461192a90614124565b80156119775780601f1061194c57610100808354040283529160200191611977565b820191906000526020600020905b81548152906001019060200180831161195a57829003601f168201915b5050505050815260200160136001866119909190614520565b815481106119a1576119a06144c2565b5b906000526020600020906007020160040180546119bd90614124565b80601f01602080910402602001604051908101604052809291908181526020018280546119e990614124565b8015611a365780601f10611a0b57610100808354040283529160200191611a36565b820191906000526020600020905b815481529060010190602001808311611a1957829003601f168201915b505050505081526020016013600186611a4f9190614520565b81548110611a6057611a5f6144c2565b5b90600052602060002090600702016005018054611a7c90614124565b80601f0160208091040260200160405190810160405280929190818152602001828054611aa890614124565b8015611af55780601f10611aca57610100808354040283529160200191611af5565b820191906000526020600020905b815481529060010190602001808311611ad857829003601f168201915b505050505081526020014281525090806001815401808255809150506001900390600052602060002090600702016000909190919091506000820151816000015560208201518160010160006101000a81548173ffffffffffffffffffffffffffffffffffffffff021916908373ffffffffffffffffffffffffffffffffffffffff160217905550604082015181600201556060820151816003019080519060200190611ba3929190613631565b506080820151816004019080519060200190611bc0929190613631565b5060a0820151816005019080519060200190611bdd929190613631565b5060c0820151816006015550503373ffffffffffffffffffffffffffffffffffffffff167fb9508407a6eccb191d8da3286f4173697cf95604e9ea192fe5ab7c862b5221f6601054346013600187611c359190614520565b81548110611c4657611c456144c2565b5b906000526020600020906007020160050142604051611c689493929190614a5f565b60405180910390a2336013600184611c809190614520565b81548110611c9157611c906144c2565b5b906000526020600020906007020160010160006101000a81548173ffffffffffffffffffffffffffffffffffffffff021916908373ffffffffffffffffffffffffffffffffffffffff1602179055505050565b611cf6611cef612468565b8383612a40565b5050565b6000808211611d3e576040517f08c379a0000000000000000000000000000000000000000000000000000000008152600401611d3590614af7565b60405180910390fd5b6013600184611d4d9190614520565b81548110611d5e57611d5d6144c2565b5b906000526020600020906007020160010160009054906101000a900473ffffffffffffffffffffffffffffffffffffffff1673ffffffffffffffffffffffffffffffffffffffff163373ffffffffffffffffffffffffffffffffffffffff1614611dfd576040517f08c379a0000000000000000000000000000000000000000000000000000000008152600401611df4906149aa565b60405180910390fd5b816013600185611e0d9190614520565b81548110611e1e57611e1d6144c2565b5b9060005260206000209060070201600201819055506001905092915050565b611e4e611e48612468565b83612529565b611e8d576040517f08c379a0000000000000000000000000000000000000000000000000000000008152600401611e849061437e565b60405180910390fd5b611e9984848484612bad565b50505050565b6060611eaa826123fc565b611ee9576040517f08c379a0000000000000000000000000000000000000000000000000000000008152600401611ee090614b89565b60405180910390fd5b6000611ef3612c09565b90506000815111611f135760405180602001604052806000815250611f3e565b80611f1d84612c20565b604051602001611f2e929190614ba9565b6040516020818303038152906040525b915050919050565b600c6020528060005260406000206000915054906101000a900473ffffffffffffffffffffffffffffffffffffffff1681565b60606013805480602002602001604051908101604052809291908181526020016000905b828210156121f957838290600052602060002090600702016040518060e0016040529081600082015481526020016001820160009054906101000a900473ffffffffffffffffffffffffffffffffffffffff1673ffffffffffffffffffffffffffffffffffffffff1673ffffffffffffffffffffffffffffffffffffffff1681526020016002820154815260200160038201805461203a90614124565b80601f016020809104026020016040519081016040528092919081815260200182805461206690614124565b80156120b35780601f10612088576101008083540402835291602001916120b3565b820191906000526020600020905b81548152906001019060200180831161209657829003601f168201915b505050505081526020016004820180546120cc90614124565b80601f01602080910402602001604051908101604052809291908181526020018280546120f890614124565b80156121455780601f1061211a57610100808354040283529160200191612145565b820191906000526020600020905b81548152906001019060200180831161212857829003601f168201915b5050505050815260200160058201805461215e90614124565b80601f016020809104026020016040519081016040528092919081815260200182805461218a90614124565b80156121d75780601f106121ac576101008083540402835291602001916121d7565b820191906000526020600020905b8154815290600101906020018083116121ba57829003601f168201915b5050505050815260200160068201548152505081526020019060010190611f9d565b50505050905090565b6000600560008473ffffffffffffffffffffffffffffffffffffffff1673ffffffffffffffffffffffffffffffffffffffff16815260200190815260200160002060008373ffffffffffffffffffffffffffffffffffffffff1673ffffffffffffffffffffffffffffffffffffffff16815260200190815260200160002060009054906101000a900460ff16905092915050565b61229e612863565b600073ffffffffffffffffffffffffffffffffffffffff168173ffffffffffffffffffffffffffffffffffffffff16141561230e576040517f08c379a000000000000000000000000000000000000000000000000000000000815260040161230590614c3f565b60405180910390fd5b612317816128e1565b50565b60007f80ac58cd000000000000000000000000000000000000000000000000000000007bffffffffffffffffffffffffffffffffffffffffffffffffffffffff1916827bffffffffffffffffffffffffffffffffffffffffffffffffffffffff191614806123e557507f5b5e139f000000000000000000000000000000000000000000000000000000007bffffffffffffffffffffffffffffffffffffffffffffffffffffffff1916827bffffffffffffffffffffffffffffffffffffffffffffffffffffffff1916145b806123f557506123f482612d81565b5b9050919050565b60008073ffffffffffffffffffffffffffffffffffffffff166002600084815260200190815260200160002060009054906101000a900473ffffffffffffffffffffffffffffffffffffffff1673ffffffffffffffffffffffffffffffffffffffff1614159050919050565b600033905090565b816004600083815260200190815260200160002060006101000a81548173ffffffffffffffffffffffffffffffffffffffff021916908373ffffffffffffffffffffffffffffffffffffffff160217905550808273ffffffffffffffffffffffffffffffffffffffff166124e3836110f2565b73ffffffffffffffffffffffffffffffffffffffff167f8c5be1e5ebec7d5bd14f71427d1e84f3dd0314c0f7b2291e5b200ac8c7c3b92560405160405180910390a45050565b6000612534826123fc565b612573576040517f08c379a000000000000000000000000000000000000000000000000000000000815260040161256a90614cd1565b60405180910390fd5b600061257e836110f2565b90508073ffffffffffffffffffffffffffffffffffffffff168473ffffffffffffffffffffffffffffffffffffffff1614806125ed57508373ffffffffffffffffffffffffffffffffffffffff166125d584610885565b73ffffffffffffffffffffffffffffffffffffffff16145b806125fe57506125fd8185612202565b5b91505092915050565b8273ffffffffffffffffffffffffffffffffffffffff16612627826110f2565b73ffffffffffffffffffffffffffffffffffffffff161461267d576040517f08c379a000000000000000000000000000000000000000000000000000000000815260040161267490614d63565b60405180910390fd5b600073ffffffffffffffffffffffffffffffffffffffff168273ffffffffffffffffffffffffffffffffffffffff1614156126ed576040517f08c379a00000000000000000000000000000000000000000000000000000000081526004016126e490614df5565b60405180910390fd5b6126f8838383612deb565b612703600082612470565b6001600360008573ffffffffffffffffffffffffffffffffffffffff1673ffffffffffffffffffffffffffffffffffffffff16815260200190815260200160002060008282546127539190614520565b925050819055506001600360008473ffffffffffffffffffffffffffffffffffffffff1673ffffffffffffffffffffffffffffffffffffffff16815260200190815260200160002060008282546127aa9190614e15565b92505081905550816002600083815260200190815260200160002060006101000a81548173ffffffffffffffffffffffffffffffffffffffff021916908373ffffffffffffffffffffffffffffffffffffffff160217905550808273ffffffffffffffffffffffffffffffffffffffff168473ffffffffffffffffffffffffffffffffffffffff167fddf252ad1be2c89b69c2b068fc378daa952ba7f163c4a11628f55a4df523b3ef60405160405180910390a4505050565b61286b612468565b73ffffffffffffffffffffffffffffffffffffffff166128896115d3565b73ffffffffffffffffffffffffffffffffffffffff16146128df576040517f08c379a00000000000000000000000000000000000000000000000000000000081526004016128d690614eb7565b60405180910390fd5b565b6000600a60009054906101000a900473ffffffffffffffffffffffffffffffffffffffff16905081600a60006101000a81548173ffffffffffffffffffffffffffffffffffffffff021916908373ffffffffffffffffffffffffffffffffffffffff1602179055508173ffffffffffffffffffffffffffffffffffffffff168173ffffffffffffffffffffffffffffffffffffffff167f8be0079c531659141344cd1fd0a4f28419497f9722a3daafe3b4186f6b6457e060405160405180910390a35050565b60008273ffffffffffffffffffffffffffffffffffffffff16826040516129cd90614f08565b60006040518083038185875af1925050503d8060008114612a0a576040519150601f19603f3d011682016040523d82523d6000602084013e612a0f565b606091505b5050905080612a1d57600080fd5b505050565b612a3c828260405180602001604052806000815250612eff565b5050565b8173ffffffffffffffffffffffffffffffffffffffff168373ffffffffffffffffffffffffffffffffffffffff161415612aaf576040517f08c379a0000000000000000000000000000000000000000000000000000000008152600401612aa690614f69565b60405180910390fd5b80600560008573ffffffffffffffffffffffffffffffffffffffff1673ffffffffffffffffffffffffffffffffffffffff16815260200190815260200160002060008473ffffffffffffffffffffffffffffffffffffffff1673ffffffffffffffffffffffffffffffffffffffff16815260200190815260200160002060006101000a81548160ff0219169083151502179055508173ffffffffffffffffffffffffffffffffffffffff168373ffffffffffffffffffffffffffffffffffffffff167f17307eab39ab6107e8899845ad3d59bd9653f200f220920489ca2b5937696c3183604051612ba09190613788565b60405180910390a3505050565b612bb8848484612607565b612bc484848484612f5a565b612c03576040517f08c379a0000000000000000000000000000000000000000000000000000000008152600401612bfa90614ffb565b60405180910390fd5b50505050565b606060405180602001604052806000815250905090565b60606000821415612c68576040518060400160405280600181526020017f30000000000000000000000000000000000000000000000000000000000000008152509050612d7c565b600082905060005b60008214612c9a578080612c839061485d565b915050600a82612c93919061482c565b9150612c70565b60008167ffffffffffffffff811115612cb657612cb5613cff565b5b6040519080825280601f01601f191660200182016040528015612ce85781602001600182028036833780820191505090505b5090505b60008514612d7557600182612d019190614520565b9150600a85612d10919061501b565b6030612d1c9190614e15565b60f81b818381518110612d3257612d316144c2565b5b60200101907effffffffffffffffffffffffffffffffffffffffffffffffffffffffffffff1916908160001a905350600a85612d6e919061482c565b9450612cec565b8093505050505b919050565b60007f01ffc9a7000000000000000000000000000000000000000000000000000000007bffffffffffffffffffffffffffffffffffffffffffffffffffffffff1916827bffffffffffffffffffffffffffffffffffffffffffffffffffffffff1916149050919050565b612df68383836130e2565b600073ffffffffffffffffffffffffffffffffffffffff168373ffffffffffffffffffffffffffffffffffffffff161415612e3957612e34816130e7565b612e78565b8173ffffffffffffffffffffffffffffffffffffffff168373ffffffffffffffffffffffffffffffffffffffff1614612e7757612e768382613130565b5b5b600073ffffffffffffffffffffffffffffffffffffffff168273ffffffffffffffffffffffffffffffffffffffff161415612ebb57612eb68161329d565b612efa565b8273ffffffffffffffffffffffffffffffffffffffff168273ffffffffffffffffffffffffffffffffffffffff1614612ef957612ef8828261336e565b5b5b505050565b612f0983836133ed565b612f166000848484612f5a565b612f55576040517f08c379a0000000000000000000000000000000000000000000000000000000008152600401612f4c90614ffb565b60405180910390fd5b505050565b6000612f7b8473ffffffffffffffffffffffffffffffffffffffff166135bb565b156130d5578373ffffffffffffffffffffffffffffffffffffffff1663150b7a02612fa4612468565b8786866040518563ffffffff1660e01b8152600401612fc694939291906150a1565b6020604051808303816000875af192505050801561300257506040513d601f19601f82011682018060405250810190612fff9190615102565b60015b613085573d8060008114613032576040519150601f19603f3d011682016040523d82523d6000602084013e613037565b606091505b5060008151141561307d576040517f08c379a000000000000000000000000000000000000000000000000000000000815260040161307490614ffb565b60405180910390fd5b805181602001fd5b63150b7a0260e01b7bffffffffffffffffffffffffffffffffffffffffffffffffffffffff1916817bffffffffffffffffffffffffffffffffffffffffffffffffffffffff1916149150506130da565b600190505b949350505050565b505050565b6008805490506009600083815260200190815260200160002081905550600881908060018154018082558091505060019003906000526020600020016000909190919091505550565b6000600161313d846111a4565b6131479190614520565b905060006007600084815260200190815260200160002054905081811461322c576000600660008673ffffffffffffffffffffffffffffffffffffffff1673ffffffffffffffffffffffffffffffffffffffff168152602001908152602001600020600084815260200190815260200160002054905080600660008773ffffffffffffffffffffffffffffffffffffffff1673ffffffffffffffffffffffffffffffffffffffff168152602001908152602001600020600084815260200190815260200160002081905550816007600083815260200190815260200160002081905550505b6007600084815260200190815260200160002060009055600660008573ffffffffffffffffffffffffffffffffffffffff1673ffffffffffffffffffffffffffffffffffffffff16815260200190815260200160002060008381526020019081526020016000206000905550505050565b600060016008805490506132b19190614520565b90506000600960008481526020019081526020016000205490506000600883815481106132e1576132e06144c2565b5b906000526020600020015490508060088381548110613303576133026144c2565b5b9060005260206000200181905550816009600083815260200190815260200160002081905550600960008581526020019081526020016000206000905560088054806133525761335161512f565b5b6001900381819060005260206000200160009055905550505050565b6000613379836111a4565b905081600660008573ffffffffffffffffffffffffffffffffffffffff1673ffffffffffffffffffffffffffffffffffffffff168152602001908152602001600020600083815260200190815260200160002081905550806007600084815260200190815260200160002081905550505050565b600073ffffffffffffffffffffffffffffffffffffffff168273ffffffffffffffffffffffffffffffffffffffff16141561345d576040517f08c379a0000000000000000000000000000000000000000000000000000000008152600401613454906151aa565b60405180910390fd5b613466816123fc565b156134a6576040517f08c379a000000000000000000000000000000000000000000000000000000000815260040161349d90615216565b60405180910390fd5b6134b260008383612deb565b6001600360008473ffffffffffffffffffffffffffffffffffffffff1673ffffffffffffffffffffffffffffffffffffffff16815260200190815260200160002060008282546135029190614e15565b92505081905550816002600083815260200190815260200160002060006101000a81548173ffffffffffffffffffffffffffffffffffffffff021916908373ffffffffffffffffffffffffffffffffffffffff160217905550808273ffffffffffffffffffffffffffffffffffffffff16600073ffffffffffffffffffffffffffffffffffffffff167fddf252ad1be2c89b69c2b068fc378daa952ba7f163c4a11628f55a4df523b3ef60405160405180910390a45050565b6000808273ffffffffffffffffffffffffffffffffffffffff163b119050919050565b6040518060e0016040528060008152602001600073ffffffffffffffffffffffffffffffffffffffff16815260200160008152602001606081526020016060815260200160608152602001600081525090565b82805461363d90614124565b90600052602060002090601f01602090048101928261365f57600085556136a6565b82601f1061367857805160ff19168380011785556136a6565b828001600101855582156136a6579182015b828111156136a557825182559160200191906001019061368a565b5b5090506136b391906136b7565b5090565b5b808211156136d05760008160009055506001016136b8565b5090565b6000604051905090565b600080fd5b600080fd5b60007fffffffff0000000000000000000000000000000000000000000000000000000082169050919050565b61371d816136e8565b811461372857600080fd5b50565b60008135905061373a81613714565b92915050565b600060208284031215613756576137556136de565b5b60006137648482850161372b565b91505092915050565b60008115159050919050565b6137828161376d565b82525050565b600060208201905061379d6000830184613779565b92915050565b6000819050919050565b6137b6816137a3565b82525050565b60006020820190506137d160008301846137ad565b92915050565b600081519050919050565b600082825260208201905092915050565b60005b838110156138115780820151818401526020810190506137f6565b83811115613820576000848401525b50505050565b6000601f19601f8301169050919050565b6000613842826137d7565b61384c81856137e2565b935061385c8185602086016137f3565b61386581613826565b840191505092915050565b6000602082019050818103600083015261388a8184613837565b905092915050565b61389b816137a3565b81146138a657600080fd5b50565b6000813590506138b881613892565b92915050565b6000602082840312156138d4576138d36136de565b5b60006138e2848285016138a9565b91505092915050565b600073ffffffffffffffffffffffffffffffffffffffff82169050919050565b6000613916826138eb565b9050919050565b6139268161390b565b82525050565b6000602082019050613941600083018461391d565b92915050565b6139508161390b565b811461395b57600080fd5b50565b60008135905061396d81613947565b92915050565b6000806040838503121561398a576139896136de565b5b60006139988582860161395e565b92505060206139a9858286016138a9565b9150509250929050565b6000806000606084860312156139cc576139cb6136de565b5b60006139da8682870161395e565b93505060206139eb8682870161395e565b92505060406139fc868287016138a9565b9150509250925092565b600081519050919050565b600082825260208201905092915050565b6000819050602082019050919050565b613a3b816137a3565b82525050565b613a4a8161390b565b82525050565b600082825260208201905092915050565b6000613a6c826137d7565b613a768185613a50565b9350613a868185602086016137f3565b613a8f81613826565b840191505092915050565b600060e083016000830151613ab26000860182613a32565b506020830151613ac56020860182613a41565b506040830151613ad86040860182613a32565b5060608301518482036060860152613af08282613a61565b91505060808301518482036080860152613b0a8282613a61565b91505060a083015184820360a0860152613b248282613a61565b91505060c0830151613b3960c0860182613a32565b508091505092915050565b6000613b508383613a9a565b905092915050565b6000602082019050919050565b6000613b7082613a06565b613b7a8185613a11565b935083602082028501613b8c85613a22565b8060005b85811015613bc85784840389528151613ba98582613b44565b9450613bb483613b58565b925060208a01995050600181019050613b90565b50829750879550505050505092915050565b60006020820190508181036000830152613bf48184613b65565b905092915050565b600060e083016000830151613c146000860182613a32565b506020830151613c276020860182613a41565b506040830151613c3a6040860182613a32565b5060608301518482036060860152613c528282613a61565b91505060808301518482036080860152613c6c8282613a61565b91505060a083015184820360a0860152613c868282613a61565b91505060c0830151613c9b60c0860182613a32565b508091505092915050565b60006020820190508181036000830152613cc08184613bfc565b905092915050565b600060208284031215613cde57613cdd6136de565b5b6000613cec8482850161395e565b91505092915050565b600080fd5b600080fd5b7f4e487b7100000000000000000000000000000000000000000000000000000000600052604160045260246000fd5b613d3782613826565b810181811067ffffffffffffffff82111715613d5657613d55613cff565b5b80604052505050565b6000613d696136d4565b9050613d758282613d2e565b919050565b600067ffffffffffffffff821115613d9557613d94613cff565b5b613d9e82613826565b9050602081019050919050565b82818337600083830152505050565b6000613dcd613dc884613d7a565b613d5f565b905082815260208101848484011115613de957613de8613cfa565b5b613df4848285613dab565b509392505050565b600082601f830112613e1157613e10613cf5565b5b8135613e21848260208601613dba565b91505092915050565b60008060008060808587031215613e4457613e436136de565b5b600085013567ffffffffffffffff811115613e6257613e616136e3565b5b613e6e87828801613dfc565b945050602085013567ffffffffffffffff811115613e8f57613e8e6136e3565b5b613e9b87828801613dfc565b935050604085013567ffffffffffffffff811115613ebc57613ebb6136e3565b5b613ec887828801613dfc565b9250506060613ed9878288016138a9565b91505092959194509250565b613eee8161376d565b8114613ef957600080fd5b50565b600081359050613f0b81613ee5565b92915050565b60008060408385031215613f2857613f276136de565b5b6000613f368582860161395e565b9250506020613f4785828601613efc565b9150509250929050565b60008060408385031215613f6857613f676136de565b5b6000613f76858286016138a9565b9250506020613f87858286016138a9565b9150509250929050565b600067ffffffffffffffff821115613fac57613fab613cff565b5b613fb582613826565b9050602081019050919050565b6000613fd5613fd084613f91565b613d5f565b905082815260208101848484011115613ff157613ff0613cfa565b5b613ffc848285613dab565b509392505050565b600082601f83011261401957614018613cf5565b5b8135614029848260208601613fc2565b91505092915050565b6000806000806080858703121561404c5761404b6136de565b5b600061405a8782880161395e565b945050602061406b8782880161395e565b935050604061407c878288016138a9565b925050606085013567ffffffffffffffff81111561409d5761409c6136e3565b5b6140a987828801614004565b91505092959194509250565b600080604083850312156140cc576140cb6136de565b5b60006140da8582860161395e565b92505060206140eb8582860161395e565b9150509250929050565b7f4e487b7100000000000000000000000000000000000000000000000000000000600052602260045260246000fd5b6000600282049050600182168061413c57607f821691505b602082108114156141505761414f6140f5565b5b50919050565b7f4552433732313a20617070726f76656420717565727920666f72206e6f6e657860008201527f697374656e7420746f6b656e0000000000000000000000000000000000000000602082015250565b60006141b2602c836137e2565b91506141bd82614156565b604082019050919050565b600060208201905081810360008301526141e1816141a5565b9050919050565b7f4552433732313a20617070726f76616c20746f2063757272656e74206f776e6560008201527f7200000000000000000000000000000000000000000000000000000000000000602082015250565b60006142446021836137e2565b915061424f826141e8565b604082019050919050565b6000602082019050818103600083015261427381614237565b9050919050565b7f4552433732313a20617070726f76652063616c6c6572206973206e6f74206f7760008201527f6e6572206e6f7220617070726f76656420666f7220616c6c0000000000000000602082015250565b60006142d66038836137e2565b91506142e18261427a565b604082019050919050565b60006020820190508181036000830152614305816142c9565b9050919050565b7f4552433732313a207472616e736665722063616c6c6572206973206e6f74206f60008201527f776e6572206e6f7220617070726f766564000000000000000000000000000000602082015250565b60006143686031836137e2565b91506143738261430c565b604082019050919050565b600060208201905081810360008301526143978161435b565b9050919050565b7f455243373231456e756d657261626c653a206f776e657220696e646578206f7560008201527f74206f6620626f756e6473000000000000000000000000000000000000000000602082015250565b60006143fa602b836137e2565b91506144058261439e565b604082019050919050565b60006020820190508181036000830152614429816143ed565b9050919050565b7f455243373231456e756d657261626c653a20676c6f62616c20696e646578206f60008201527f7574206f6620626f756e64730000000000000000000000000000000000000000602082015250565b600061448c602c836137e2565b915061449782614430565b604082019050919050565b600060208201905081810360008301526144bb8161447f565b9050919050565b7f4e487b7100000000000000000000000000000000000000000000000000000000600052603260045260246000fd5b7f4e487b7100000000000000000000000000000000000000000000000000000000600052601160045260246000fd5b600061452b826137a3565b9150614536836137a3565b925082821015614549576145486144f1565b5b828203905092915050565b7f4552433732313a206f776e657220717565727920666f72206e6f6e657869737460008201527f656e7420746f6b656e0000000000000000000000000000000000000000000000602082015250565b60006145b06029836137e2565b91506145bb82614554565b604082019050919050565b600060208201905081810360008301526145df816145a3565b9050919050565b7f4552433732313a2062616c616e636520717565727920666f7220746865207a6560008201527f726f206164647265737300000000000000000000000000000000000000000000602082015250565b6000614642602a836137e2565b915061464d826145e6565b604082019050919050565b6000602082019050818103600083015261467181614635565b9050919050565b7f457468657220746f6f206c6f7720666f72206d696e74696e6721000000000000600082015250565b60006146ae601a836137e2565b91506146b982614678565b602082019050919050565b600060208201905081810360008301526146dd816146a1565b9050919050565b600081905092915050565b60006146fa826137d7565b61470481856146e4565b93506147148185602086016137f3565b80840191505092915050565b600061472c82846146ef565b915081905092915050565b7f54686973204e465420697320616c7265616479206d696e746564210000000000600082015250565b600061476d601b836137e2565b915061477882614737565b602082019050919050565b6000602082019050818103600083015261479c81614760565b9050919050565b60006147ae826137a3565b91506147b9836137a3565b9250817fffffffffffffffffffffffffffffffffffffffffffffffffffffffffffffffff04831182151516156147f2576147f16144f1565b5b828202905092915050565b7f4e487b7100000000000000000000000000000000000000000000000000000000600052601260045260246000fd5b6000614837826137a3565b9150614842836137a3565b925082614852576148516147fd565b5b828204905092915050565b6000614868826137a3565b91507fffffffffffffffffffffffffffffffffffffffffffffffffffffffffffffffff82141561489b5761489a6144f1565b5b600182019050919050565b60006080820190506148bb60008301876137ad565b6148c860208301866137ad565b81810360408301526148da8185613837565b90506148e960608301846137ad565b95945050505050565b7f457468657220746f6f206c6f7720666f72207075726368617365210000000000600082015250565b6000614928601b836137e2565b9150614933826148f2565b602082019050919050565b600060208201905081810360008301526149578161491b565b9050919050565b7f4f7065726174696f6e204e6f7420416c6c6f7765642100000000000000000000600082015250565b60006149946016836137e2565b915061499f8261495e565b602082019050919050565b600060208201905081810360008301526149c381614987565b9050919050565b60008190508160005260206000209050919050565b600081546149ec81614124565b6149f681866137e2565b94506001821660008114614a115760018114614a2357614a56565b60ff1983168652602086019350614a56565b614a2c856149ca565b60005b83811015614a4e57815481890152600182019150602081019050614a2f565b808801955050505b50505092915050565b6000608082019050614a7460008301876137ad565b614a8160208301866137ad565b8181036040830152614a9381856149df565b9050614aa260608301846137ad565b95945050505050565b7f457468657220746f6f206c6f7721000000000000000000000000000000000000600082015250565b6000614ae1600e836137e2565b9150614aec82614aab565b602082019050919050565b60006020820190508181036000830152614b1081614ad4565b9050919050565b7f4552433732314d657461646174613a2055524920717565727920666f72206e6f60008201527f6e6578697374656e7420746f6b656e0000000000000000000000000000000000602082015250565b6000614b73602f836137e2565b9150614b7e82614b17565b604082019050919050565b60006020820190508181036000830152614ba281614b66565b9050919050565b6000614bb582856146ef565b9150614bc182846146ef565b91508190509392505050565b7f4f776e61626c653a206e6577206f776e657220697320746865207a65726f206160008201527f6464726573730000000000000000000000000000000000000000000000000000602082015250565b6000614c296026836137e2565b9150614c3482614bcd565b604082019050919050565b60006020820190508181036000830152614c5881614c1c565b9050919050565b7f4552433732313a206f70657261746f7220717565727920666f72206e6f6e657860008201527f697374656e7420746f6b656e0000000000000000000000000000000000000000602082015250565b6000614cbb602c836137e2565b9150614cc682614c5f565b604082019050919050565b60006020820190508181036000830152614cea81614cae565b9050919050565b7f4552433732313a207472616e73666572206f6620746f6b656e2074686174206960008201527f73206e6f74206f776e0000000000000000000000000000000000000000000000602082015250565b6000614d4d6029836137e2565b9150614d5882614cf1565b604082019050919050565b60006020820190508181036000830152614d7c81614d40565b9050919050565b7f4552433732313a207472616e7366657220746f20746865207a65726f2061646460008201527f7265737300000000000000000000000000000000000000000000000000000000602082015250565b6000614ddf6024836137e2565b9150614dea82614d83565b604082019050919050565b60006020820190508181036000830152614e0e81614dd2565b9050919050565b6000614e20826137a3565b9150614e2b836137a3565b9250827fffffffffffffffffffffffffffffffffffffffffffffffffffffffffffffffff03821115614e6057614e5f6144f1565b5b828201905092915050565b7f4f776e61626c653a2063616c6c6572206973206e6f7420746865206f776e6572600082015250565b6000614ea16020836137e2565b9150614eac82614e6b565b602082019050919050565b60006020820190508181036000830152614ed081614e94565b9050919050565b600081905092915050565b50565b6000614ef2600083614ed7565b9150614efd82614ee2565b600082019050919050565b6000614f1382614ee5565b9150819050919050565b7f4552433732313a20617070726f766520746f2063616c6c657200000000000000600082015250565b6000614f536019836137e2565b9150614f5e82614f1d565b602082019050919050565b60006020820190508181036000830152614f8281614f46565b9050919050565b7f4552433732313a207472616e7366657220746f206e6f6e20455243373231526560008201527f63656976657220696d706c656d656e7465720000000000000000000000000000602082015250565b6000614fe56032836137e2565b9150614ff082614f89565b604082019050919050565b6000602082019050818103600083015261501481614fd8565b9050919050565b6000615026826137a3565b9150615031836137a3565b925082615041576150406147fd565b5b828206905092915050565b600081519050919050565b600082825260208201905092915050565b60006150738261504c565b61507d8185615057565b935061508d8185602086016137f3565b61509681613826565b840191505092915050565b60006080820190506150b6600083018761391d565b6150c3602083018661391d565b6150d060408301856137ad565b81810360608301526150e28184615068565b905095945050505050565b6000815190506150fc81613714565b92915050565b600060208284031215615118576151176136de565b5b6000615126848285016150ed565b91505092915050565b7f4e487b7100000000000000000000000000000000000000000000000000000000600052603160045260246000fd5b7f4552433732313a206d696e7420746f20746865207a65726f2061646472657373600082015250565b60006151946020836137e2565b915061519f8261515e565b602082019050919050565b600060208201905081810360008301526151c381615187565b9050919050565b7f4552433732313a20746f6b656e20616c7265616479206d696e74656400000000600082015250565b6000615200601c836137e2565b915061520b826151ca565b602082019050919050565b6000602082019050818103600083015261522f816151f3565b905091905056fea264697066735822122003687965bd841dae2d5ed8939dad3358d791a819e10aa8b3426b15e976f6f4ab64736f6c634300080b0033",
  "immutableReferences": {},
  "source": "// SPDX-License-Identifier: MIT\r\npragma solidity >=0.7.0 <0.9.0;\r\n\r\nimport \"./ERC721.sol\";\r\nimport \"./ERC721Enumerable.sol\";\r\nimport \"@openzeppelin/contracts/access/Ownable.sol\";\r\n\r\ncontract Doves is ERC721Enumerable, Ownable {\r\n    using Strings for uint256;\r\n    mapping(string => uint8) existingURIs;\r\n    mapping(uint256 => address) public holderOf;\r\n\r\n    address public artist;\r\n    uint256 public royalityFee;\r\n    uint256 public supply = 0;\r\n    uint256 public totalTx = 0;\r\n    uint256 public cost = 0.01 ether;\r\n\r\n    event Sale(\r\n        uint256 id,\r\n        address indexed owner,\r\n        uint256 cost,\r\n        string metadataURI,\r\n        uint256 timestamp\r\n    );\r\n\r\n    struct TransactionStruct {\r\n        uint256 id;\r\n        address owner;\r\n        uint256 cost;\r\n        string title;\r\n        string description;\r\n        string metadataURI;\r\n        uint256 timestamp;\r\n    }\r\n\r\n    TransactionStruct[] transactions;\r\n    TransactionStruct[] minted;\r\n\r\n    constructor(\r\n        string memory _name,\r\n        string memory _symbol,\r\n        uint256 _royalityFee,\r\n        address _artist\r\n    ) ERC721(_name, _symbol) {\r\n        royalityFee = _royalityFee;\r\n        artist = _artist;\r\n    }\r\n\r\n    function payToMint(\r\n        string memory title,\r\n        string memory description,\r\n        string memory metadataURI,\r\n        uint256 salesPrice\r\n    ) external payable {\r\n        require(msg.value >= cost, \"Ether too low for minting!\");\r\n        require(existingURIs[metadataURI] == 0, \"This NFT is already minted!\");\r\n\r\n        uint256 royality = (msg.value * royalityFee) / 100;\r\n        payTo(artist, royality);\r\n        payTo(owner(), (msg.value - royality));\r\n\r\n        supply++;\r\n\r\n        minted.push(\r\n            TransactionStruct(\r\n                supply,\r\n                msg.sender,\r\n                salesPrice,\r\n                title,\r\n                description,\r\n                metadataURI,\r\n                block.timestamp\r\n            )\r\n        );\r\n\r\n        emit Sale(supply, msg.sender, msg.value, metadataURI, block.timestamp);\r\n\r\n        _safeMint(msg.sender, supply);\r\n        existingURIs[metadataURI] = 1;\r\n        holderOf[supply] = msg.sender;\r\n    }\r\n\r\n    function payToBuy(uint256 id) external payable {\r\n        require(\r\n            msg.value >= minted[id - 1].cost,\r\n            \"Ether too low for purchase!\"\r\n        );\r\n        require(msg.sender != minted[id - 1].owner, \"Operation Not Allowed!\");\r\n\r\n        uint256 royality = (msg.value * royalityFee) / 100;\r\n        payTo(artist, royality);\r\n        payTo(minted[id - 1].owner, (msg.value - royality));\r\n\r\n        totalTx++;\r\n\r\n        transactions.push(\r\n            TransactionStruct(\r\n                totalTx,\r\n                msg.sender,\r\n                msg.value,\r\n                minted[id - 1].title,\r\n                minted[id - 1].description,\r\n                minted[id - 1].metadataURI,\r\n                block.timestamp\r\n            )\r\n        );\r\n\r\n        emit Sale(\r\n            totalTx,\r\n            msg.sender,\r\n            msg.value,\r\n            minted[id - 1].metadataURI,\r\n            block.timestamp\r\n        );\r\n\r\n        minted[id - 1].owner = msg.sender;\r\n    }\r\n\r\n    function changePrice(uint256 id, uint256 newPrice) external returns (bool) {\r\n        require(newPrice > 0 ether, \"Ether too low!\");\r\n        require(msg.sender == minted[id - 1].owner, \"Operation Not Allowed!\");\r\n\r\n        minted[id - 1].cost = newPrice;\r\n        return true;\r\n    }\r\n\r\n    function payTo(address to, uint256 amount) internal {\r\n        (bool success, ) = payable(to).call{value: amount}(\"\");\r\n        require(success);\r\n    }\r\n\r\n    function getAllNFTs() external view returns (TransactionStruct[] memory) {\r\n        return minted;\r\n    }\r\n\r\n    function getNFT(\r\n        uint256 id\r\n    ) external view returns (TransactionStruct memory) {\r\n        return minted[id - 1];\r\n    }\r\n\r\n    function getAllTransactions()\r\n        external\r\n        view\r\n        returns (TransactionStruct[] memory)\r\n    {\r\n        return transactions;\r\n    }\r\n}\r\n",
  "sourcePath": "C:\\Users\\HP\\Documents\\_projects\\Sandbox\\_02_Ongoing\\doves_nft_marketplace\\src\\contracts\\Doves.sol",
  "compiler": {
    "name": "solc",
    "version": "0.8.11+commit.d7f03943.Emscripten.clang"
  },
  "schemaVersion": "3.4.14",
  "updatedAt": "2023-06-13T18:32:20.528Z",
  "networkType": "ethereum",
  "devdoc": {
    "kind": "dev",
    "methods": {
      "approve(address,uint256)": {
        "details": "See {IERC721-approve}."
      },
      "balanceOf(address)": {
        "details": "See {IERC721-balanceOf}."
      },
      "getApproved(uint256)": {
        "details": "See {IERC721-getApproved}."
      },
      "isApprovedForAll(address,address)": {
        "details": "See {IERC721-isApprovedForAll}."
      },
      "name()": {
        "details": "See {IERC721Metadata-name}."
      },
      "owner()": {
        "details": "Returns the address of the current owner."
      },
      "ownerOf(uint256)": {
        "details": "See {IERC721-ownerOf}."
      },
      "renounceOwnership()": {
        "details": "Leaves the contract without owner. It will not be possible to call `onlyOwner` functions anymore. Can only be called by the current owner. NOTE: Renouncing ownership will leave the contract without an owner, thereby removing any functionality that is only available to the owner."
      },
      "safeTransferFrom(address,address,uint256)": {
        "details": "See {IERC721-safeTransferFrom}."
      },
      "safeTransferFrom(address,address,uint256,bytes)": {
        "details": "See {IERC721-safeTransferFrom}."
      },
      "setApprovalForAll(address,bool)": {
        "details": "See {IERC721-setApprovalForAll}."
      },
      "supportsInterface(bytes4)": {
        "details": "See {IERC165-supportsInterface}."
      },
      "symbol()": {
        "details": "See {IERC721Metadata-symbol}."
      },
      "tokenByIndex(uint256)": {
        "details": "See {IERC721Enumerable-tokenByIndex}."
      },
      "tokenOfOwnerByIndex(address,uint256)": {
        "details": "See {IERC721Enumerable-tokenOfOwnerByIndex}."
      },
      "tokenURI(uint256)": {
        "details": "See {IERC721Metadata-tokenURI}."
      },
      "totalSupply()": {
        "details": "See {IERC721Enumerable-totalSupply}."
      },
      "transferFrom(address,address,uint256)": {
        "details": "See {IERC721-transferFrom}."
      },
      "transferOwnership(address)": {
        "details": "Transfers ownership of the contract to a new account (`newOwner`). Can only be called by the current owner."
      }
    },
    "version": 1
  },
  "userdoc": {
    "kind": "user",
    "methods": {},
    "version": 1
  }
}