{
  "contractName": "Doves",
  "abi": [
    {
      "inputs": [
        {
          "internalType": "string",
          "name": "_name",
          "type": "string"
        },
        {
          "internalType": "string",
          "name": "_symbol",
          "type": "string"
        },
        {
          "internalType": "uint256",
          "name": "_royalityFee",
          "type": "uint256"
        },
        {
          "internalType": "address",
          "name": "_artist",
          "type": "address"
        }
      ],
      "stateMutability": "nonpayable",
      "type": "constructor"
    },
    {
      "anonymous": false,
      "inputs": [
        {
          "indexed": true,
          "internalType": "address",
          "name": "owner",
          "type": "address"
        },
        {
          "indexed": true,
          "internalType": "address",
          "name": "approved",
          "type": "address"
        },
        {
          "indexed": true,
          "internalType": "uint256",
          "name": "tokenId",
          "type": "uint256"
        }
      ],
      "name": "Approval",
      "type": "event"
    },
    {
      "anonymous": false,
      "inputs": [
        {
          "indexed": true,
          "internalType": "address",
          "name": "owner",
          "type": "address"
        },
        {
          "indexed": true,
          "internalType": "address",
          "name": "operator",
          "type": "address"
        },
        {
          "indexed": false,
          "internalType": "bool",
          "name": "approved",
          "type": "bool"
        }
      ],
      "name": "ApprovalForAll",
      "type": "event"
    },
    {
      "anonymous": false,
      "inputs": [
        {
          "indexed": true,
          "internalType": "address",
          "name": "previousOwner",
          "type": "address"
        },
        {
          "indexed": true,
          "internalType": "address",
          "name": "newOwner",
          "type": "address"
        }
      ],
      "name": "OwnershipTransferred",
      "type": "event"
    },
    {
      "anonymous": false,
      "inputs": [
        {
          "indexed": false,
          "internalType": "uint256",
          "name": "id",
          "type": "uint256"
        },
        {
          "indexed": true,
          "internalType": "address",
          "name": "owner",
          "type": "address"
        },
        {
          "indexed": false,
          "internalType": "uint256",
          "name": "cost",
          "type": "uint256"
        },
        {
          "indexed": false,
          "internalType": "string",
          "name": "metadataURI",
          "type": "string"
        },
        {
          "indexed": false,
          "internalType": "uint256",
          "name": "timestamp",
          "type": "uint256"
        }
      ],
      "name": "Sale",
      "type": "event"
    },
    {
      "anonymous": false,
      "inputs": [
        {
          "indexed": true,
          "internalType": "address",
          "name": "from",
          "type": "address"
        },
        {
          "indexed": true,
          "internalType": "address",
          "name": "to",
          "type": "address"
        },
        {
          "indexed": true,
          "internalType": "uint256",
          "name": "tokenId",
          "type": "uint256"
        }
      ],
      "name": "Transfer",
      "type": "event"
    },
    {
      "inputs": [
        {
          "internalType": "address",
          "name": "to",
          "type": "address"
        },
        {
          "internalType": "uint256",
          "name": "tokenId",
          "type": "uint256"
        }
      ],
      "name": "approve",
      "outputs": [],
      "stateMutability": "nonpayable",
      "type": "function"
    },
    {
      "inputs": [],
      "name": "artist",
      "outputs": [
        {
          "internalType": "address",
          "name": "",
          "type": "address"
        }
      ],
      "stateMutability": "view",
      "type": "function",
      "constant": true
    },
    {
      "inputs": [
        {
          "internalType": "address",
          "name": "owner",
          "type": "address"
        }
      ],
      "name": "balanceOf",
      "outputs": [
        {
          "internalType": "uint256",
          "name": "",
          "type": "uint256"
        }
      ],
      "stateMutability": "view",
      "type": "function",
      "constant": true
    },
    {
      "inputs": [],
      "name": "cost",
      "outputs": [
        {
          "internalType": "uint256",
          "name": "",
          "type": "uint256"
        }
      ],
      "stateMutability": "view",
      "type": "function",
      "constant": true
    },
    {
      "inputs": [
        {
          "internalType": "uint256",
          "name": "tokenId",
          "type": "uint256"
        }
      ],
      "name": "getApproved",
      "outputs": [
        {
          "internalType": "address",
          "name": "",
          "type": "address"
        }
      ],
      "stateMutability": "view",
      "type": "function",
      "constant": true
    },
    {
      "inputs": [
        {
          "internalType": "uint256",
          "name": "",
          "type": "uint256"
        }
      ],
      "name": "holderOf",
      "outputs": [
        {
          "internalType": "address",
          "name": "",
          "type": "address"
        }
      ],
      "stateMutability": "view",
      "type": "function",
      "constant": true
    },
    {
      "inputs": [
        {
          "internalType": "address",
          "name": "owner",
          "type": "address"
        },
        {
          "internalType": "address",
          "name": "operator",
          "type": "address"
        }
      ],
      "name": "isApprovedForAll",
      "outputs": [
        {
          "internalType": "bool",
          "name": "",
          "type": "bool"
        }
      ],
      "stateMutability": "view",
      "type": "function",
      "constant": true
    },
    {
      "inputs": [],
      "name": "name",
      "outputs": [
        {
          "internalType": "string",
          "name": "",
          "type": "string"
        }
      ],
      "stateMutability": "view",
      "type": "function",
      "constant": true
    },
    {
      "inputs": [],
      "name": "owner",
      "outputs": [
        {
          "internalType": "address",
          "name": "",
          "type": "address"
        }
      ],
      "stateMutability": "view",
      "type": "function",
      "constant": true
    },
    {
      "inputs": [
        {
          "internalType": "uint256",
          "name": "tokenId",
          "type": "uint256"
        }
      ],
      "name": "ownerOf",
      "outputs": [
        {
          "internalType": "address",
          "name": "",
          "type": "address"
        }
      ],
      "stateMutability": "view",
      "type": "function",
      "constant": true
    },
    {
      "inputs": [],
      "name": "renounceOwnership",
      "outputs": [],
      "stateMutability": "nonpayable",
      "type": "function"
    },
    {
      "inputs": [],
      "name": "royalityFee",
      "outputs": [
        {
          "internalType": "uint256",
          "name": "",
          "type": "uint256"
        }
      ],
      "stateMutability": "view",
      "type": "function",
      "constant": true
    },
    {
      "inputs": [
        {
          "internalType": "address",
          "name": "from",
          "type": "address"
        },
        {
          "internalType": "address",
          "name": "to",
          "type": "address"
        },
        {
          "internalType": "uint256",
          "name": "tokenId",
          "type": "uint256"
        }
      ],
      "name": "safeTransferFrom",
      "outputs": [],
      "stateMutability": "payable",
      "type": "function",
      "payable": true
    },
    {
      "inputs": [
        {
          "internalType": "address",
          "name": "from",
          "type": "address"
        },
        {
          "internalType": "address",
          "name": "to",
          "type": "address"
        },
        {
          "internalType": "uint256",
          "name": "tokenId",
          "type": "uint256"
        },
        {
          "internalType": "bytes",
          "name": "_data",
          "type": "bytes"
        }
      ],
      "name": "safeTransferFrom",
      "outputs": [],
      "stateMutability": "payable",
      "type": "function",
      "payable": true
    },
    {
      "inputs": [
        {
          "internalType": "address",
          "name": "operator",
          "type": "address"
        },
        {
          "internalType": "bool",
          "name": "approved",
          "type": "bool"
        }
      ],
      "name": "setApprovalForAll",
      "outputs": [],
      "stateMutability": "nonpayable",
      "type": "function"
    },
    {
      "inputs": [],
      "name": "supply",
      "outputs": [
        {
          "internalType": "uint256",
          "name": "",
          "type": "uint256"
        }
      ],
      "stateMutability": "view",
      "type": "function",
      "constant": true
    },
    {
      "inputs": [
        {
          "internalType": "bytes4",
          "name": "interfaceId",
          "type": "bytes4"
        }
      ],
      "name": "supportsInterface",
      "outputs": [
        {
          "internalType": "bool",
          "name": "",
          "type": "bool"
        }
      ],
      "stateMutability": "view",
      "type": "function",
      "constant": true
    },
    {
      "inputs": [],
      "name": "symbol",
      "outputs": [
        {
          "internalType": "string",
          "name": "",
          "type": "string"
        }
      ],
      "stateMutability": "view",
      "type": "function",
      "constant": true
    },
    {
      "inputs": [
        {
          "internalType": "uint256",
          "name": "index",
          "type": "uint256"
        }
      ],
      "name": "tokenByIndex",
      "outputs": [
        {
          "internalType": "uint256",
          "name": "",
          "type": "uint256"
        }
      ],
      "stateMutability": "view",
      "type": "function",
      "constant": true
    },
    {
      "inputs": [
        {
          "internalType": "address",
          "name": "owner",
          "type": "address"
        },
        {
          "internalType": "uint256",
          "name": "index",
          "type": "uint256"
        }
      ],
      "name": "tokenOfOwnerByIndex",
      "outputs": [
        {
          "internalType": "uint256",
          "name": "",
          "type": "uint256"
        }
      ],
      "stateMutability": "view",
      "type": "function",
      "constant": true
    },
    {
      "inputs": [
        {
          "internalType": "uint256",
          "name": "tokenId",
          "type": "uint256"
        }
      ],
      "name": "tokenURI",
      "outputs": [
        {
          "internalType": "string",
          "name": "",
          "type": "string"
        }
      ],
      "stateMutability": "view",
      "type": "function",
      "constant": true
    },
    {
      "inputs": [],
      "name": "totalSupply",
      "outputs": [
        {
          "internalType": "uint256",
          "name": "",
          "type": "uint256"
        }
      ],
      "stateMutability": "view",
      "type": "function",
      "constant": true
    },
    {
      "inputs": [],
      "name": "totalTx",
      "outputs": [
        {
          "internalType": "uint256",
          "name": "",
          "type": "uint256"
        }
      ],
      "stateMutability": "view",
      "type": "function",
      "constant": true
    },
    {
      "inputs": [
        {
          "internalType": "address",
          "name": "from",
          "type": "address"
        },
        {
          "internalType": "address",
          "name": "to",
          "type": "address"
        },
        {
          "internalType": "uint256",
          "name": "tokenId",
          "type": "uint256"
        }
      ],
      "name": "transferFrom",
      "outputs": [],
      "stateMutability": "payable",
      "type": "function",
      "payable": true
    },
    {
      "inputs": [
        {
          "internalType": "address",
          "name": "newOwner",
          "type": "address"
        }
      ],
      "name": "transferOwnership",
      "outputs": [],
      "stateMutability": "nonpayable",
      "type": "function"
    },
    {
      "inputs": [
        {
          "internalType": "string",
          "name": "title",
          "type": "string"
        },
        {
          "internalType": "string",
          "name": "description",
          "type": "string"
        },
        {
          "internalType": "string",
          "name": "metadataURI",
          "type": "string"
        },
        {
          "internalType": "uint256",
          "name": "salesPrice",
          "type": "uint256"
        }
      ],
      "name": "payToMint",
      "outputs": [],
      "stateMutability": "payable",
      "type": "function",
      "payable": true
    },
    {
      "inputs": [
        {
          "internalType": "uint256",
          "name": "id",
          "type": "uint256"
        }
      ],
      "name": "payToBuy",
      "outputs": [],
      "stateMutability": "payable",
      "type": "function",
      "payable": true
    },
    {
      "inputs": [
        {
          "internalType": "uint256",
          "name": "id",
          "type": "uint256"
        },
        {
          "internalType": "uint256",
          "name": "newPrice",
          "type": "uint256"
        }
      ],
      "name": "changePrice",
      "outputs": [
        {
          "internalType": "bool",
          "name": "",
          "type": "bool"
        }
      ],
      "stateMutability": "nonpayable",
      "type": "function"
    },
    {
      "inputs": [],
      "name": "getAllNFTs",
      "outputs": [
        {
          "components": [
            {
              "internalType": "uint256",
              "name": "id",
              "type": "uint256"
            },
            {
              "internalType": "address",
              "name": "owner",
              "type": "address"
            },
            {
              "internalType": "uint256",
              "name": "cost",
              "type": "uint256"
            },
            {
              "internalType": "string",
              "name": "title",
              "type": "string"
            },
            {
              "internalType": "string",
              "name": "description",
              "type": "string"
            },
            {
              "internalType": "string",
              "name": "metadataURI",
              "type": "string"
            },
            {
              "internalType": "uint256",
              "name": "timestamp",
              "type": "uint256"
            }
          ],
          "internalType": "struct Doves.TransactionStruct[]",
          "name": "",
          "type": "tuple[]"
        }
      ],
      "stateMutability": "view",
      "type": "function",
      "constant": true
    },
    {
      "inputs": [
        {
          "internalType": "uint256",
          "name": "id",
          "type": "uint256"
        }
      ],
      "name": "getNFT",
      "outputs": [
        {
          "components": [
            {
              "internalType": "uint256",
              "name": "id",
              "type": "uint256"
            },
            {
              "internalType": "address",
              "name": "owner",
              "type": "address"
            },
            {
              "internalType": "uint256",
              "name": "cost",
              "type": "uint256"
            },
            {
              "internalType": "string",
              "name": "title",
              "type": "string"
            },
            {
              "internalType": "string",
              "name": "description",
              "type": "string"
            },
            {
              "internalType": "string",
              "name": "metadataURI",
              "type": "string"
            },
            {
              "internalType": "uint256",
              "name": "timestamp",
              "type": "uint256"
            }
          ],
          "internalType": "struct Doves.TransactionStruct",
          "name": "",
          "type": "tuple"
        }
      ],
      "stateMutability": "view",
      "type": "function",
      "constant": true
    },
    {
      "inputs": [],
      "name": "getAllTransactions",
      "outputs": [
        {
          "components": [
            {
              "internalType": "uint256",
              "name": "id",
              "type": "uint256"
            },
            {
              "internalType": "address",
              "name": "owner",
              "type": "address"
            },
            {
              "internalType": "uint256",
              "name": "cost",
              "type": "uint256"
            },
            {
              "internalType": "string",
              "name": "title",
              "type": "string"
            },
            {
              "internalType": "string",
              "name": "description",
              "type": "string"
            },
            {
              "internalType": "string",
              "name": "metadataURI",
              "type": "string"
            },
            {
              "internalType": "uint256",
              "name": "timestamp",
              "type": "uint256"
            }
          ],
          "internalType": "struct Doves.TransactionStruct[]",
          "name": "",
          "type": "tuple[]"
        }
      ],
      "stateMutability": "view",
      "type": "function",
      "constant": true
    }
  ],
  "bytecode": "0x60806040526000600f556000601055662386f26fc100006011553480156200002657600080fd5b50604051620059223803806200592283398181016040528101906200004c9190620004af565b8383816000908051906020019062000066929190620001c2565b5080600190805190602001906200007f929190620001c2565b505050620000a262000096620000f460201b60201c565b620000fc60201b60201c565b81600e8190555080600d60006101000a81548173ffffffffffffffffffffffffffffffffffffffff021916908373ffffffffffffffffffffffffffffffffffffffff16021790555050505050620005c4565b600033905090565b6000600a60009054906101000a900473ffffffffffffffffffffffffffffffffffffffff16905081600a60006101000a81548173ffffffffffffffffffffffffffffffffffffffff021916908373ffffffffffffffffffffffffffffffffffffffff1602179055508173ffffffffffffffffffffffffffffffffffffffff168173ffffffffffffffffffffffffffffffffffffffff167f8be0079c531659141344cd1fd0a4f28419497f9722a3daafe3b4186f6b6457e060405160405180910390a35050565b828054620001d0906200058e565b90600052602060002090601f016020900481019282620001f4576000855562000240565b82601f106200020f57805160ff191683800117855562000240565b8280016001018555821562000240579182015b828111156200023f57825182559160200191906001019062000222565b5b5090506200024f919062000253565b5090565b5b808211156200026e57600081600090555060010162000254565b5090565b6000604051905090565b600080fd5b600080fd5b600080fd5b600080fd5b6000601f19601f8301169050919050565b7f4e487b7100000000000000000000000000000000000000000000000000000000600052604160045260246000fd5b620002db8262000290565b810181811067ffffffffffffffff82111715620002fd57620002fc620002a1565b5b80604052505050565b60006200031262000272565b9050620003208282620002d0565b919050565b600067ffffffffffffffff821115620003435762000342620002a1565b5b6200034e8262000290565b9050602081019050919050565b60005b838110156200037b5780820151818401526020810190506200035e565b838111156200038b576000848401525b50505050565b6000620003a8620003a28462000325565b62000306565b905082815260208101848484011115620003c757620003c66200028b565b5b620003d48482856200035b565b509392505050565b600082601f830112620003f457620003f362000286565b5b81516200040684826020860162000391565b91505092915050565b6000819050919050565b62000424816200040f565b81146200043057600080fd5b50565b600081519050620004448162000419565b92915050565b600073ffffffffffffffffffffffffffffffffffffffff82169050919050565b600062000477826200044a565b9050919050565b62000489816200046a565b81146200049557600080fd5b50565b600081519050620004a9816200047e565b92915050565b60008060008060808587031215620004cc57620004cb6200027c565b5b600085015167ffffffffffffffff811115620004ed57620004ec62000281565b5b620004fb87828801620003dc565b945050602085015167ffffffffffffffff8111156200051f576200051e62000281565b5b6200052d87828801620003dc565b9350506040620005408782880162000433565b9250506060620005538782880162000498565b91505092959194509250565b7f4e487b7100000000000000000000000000000000000000000000000000000000600052602260045260246000fd5b60006002820490506001821680620005a757607f821691505b60208210811415620005be57620005bd6200055f565b5b50919050565b61534e80620005d46000396000f3fe6080604052600436106101d85760003560e01c80636352211e11610102578063a22cb46511610095578063dbacc23711610064578063dbacc237146106a5578063e0391b09146106e2578063e985e9c51461070d578063f2fde38b1461074a576101d8565b8063a22cb465146105e6578063b3de019c1461060f578063b88d4fde1461064c578063c87b56dd14610668576101d8565b8063799c0c1e116100d1578063799c0c1e146105585780638da5cb5b1461057457806395d89b411461059f5780639ba4b017146105ca576101d8565b80636352211e1461049c57806370a08231146104d9578063715018a6146105165780637220cf391461052d576101d8565b806323b872dd1161017a57806342842e0e1161014957806342842e0e146103db57806343bc1612146103f75780634f6ccce714610422578063576f7ea71461045f576101d8565b806323b872dd1461032c57806327506f53146103485780632f745c5914610373578063326bb4ad146103b0576101d8565b8063081812fc116101b6578063081812fc14610270578063095ea7b3146102ad57806313faede6146102d657806318160ddd14610301576101d8565b806301ffc9a7146101dd578063047fc9aa1461021a57806306fdde0314610245575b600080fd5b3480156101e957600080fd5b5061020460048036038101906101ff91906137b6565b610773565b60405161021191906137fe565b60405180910390f35b34801561022657600080fd5b5061022f6107ed565b60405161023c9190613832565b60405180910390f35b34801561025157600080fd5b5061025a6107f3565b60405161026791906138e6565b60405180910390f35b34801561027c57600080fd5b5061029760048036038101906102929190613934565b610885565b6040516102a491906139a2565b60405180910390f35b3480156102b957600080fd5b506102d460048036038101906102cf91906139e9565b61090a565b005b3480156102e257600080fd5b506102eb610a22565b6040516102f89190613832565b60405180910390f35b34801561030d57600080fd5b50610316610a28565b6040516103239190613832565b60405180910390f35b61034660048036038101906103419190613a29565b610a35565b005b34801561035457600080fd5b5061035d610a95565b60405161036a9190613c50565b60405180910390f35b34801561037f57600080fd5b5061039a600480360381019061039591906139e9565b610d1e565b6040516103a79190613832565b60405180910390f35b3480156103bc57600080fd5b506103c5610dc3565b6040516103d29190613832565b60405180910390f35b6103f560048036038101906103f09190613a29565b610dc9565b005b34801561040357600080fd5b5061040c610de9565b60405161041991906139a2565b60405180910390f35b34801561042e57600080fd5b5061044960048036038101906104449190613934565b610e0f565b6040516104569190613832565b60405180910390f35b34801561046b57600080fd5b5061048660048036038101906104819190613934565b610e80565b6040516104939190613d1c565b60405180910390f35b3480156104a857600080fd5b506104c360048036038101906104be9190613934565b6110f2565b6040516104d091906139a2565b60405180910390f35b3480156104e557600080fd5b5061050060048036038101906104fb9190613d3e565b6111a4565b60405161050d9190613832565b60405180910390f35b34801561052257600080fd5b5061052b61125c565b005b34801561053957600080fd5b50610542611270565b60405161054f9190613832565b60405180910390f35b610572600480360381019061056d9190613ea0565b611276565b005b34801561058057600080fd5b50610589611649565b60405161059691906139a2565b60405180910390f35b3480156105ab57600080fd5b506105b4611673565b6040516105c191906138e6565b60405180910390f35b6105e460048036038101906105df9190613934565b611705565b005b3480156105f257600080fd5b5061060d60048036038101906106089190613f87565b611d5a565b005b34801561061b57600080fd5b5061063660048036038101906106319190613fc7565b611d70565b60405161064391906137fe565b60405180910390f35b610666600480360381019061066191906140a8565b611eb3565b005b34801561067457600080fd5b5061068f600480360381019061068a9190613934565b611f15565b60405161069c91906138e6565b60405180910390f35b3480156106b157600080fd5b506106cc60048036038101906106c79190613934565b611fbc565b6040516106d991906139a2565b60405180910390f35b3480156106ee57600080fd5b506106f7611fef565b6040516107049190613c50565b60405180910390f35b34801561071957600080fd5b50610734600480360381019061072f919061412b565b612278565b60405161074191906137fe565b60405180910390f35b34801561075657600080fd5b50610771600480360381019061076c9190613d3e565b61230c565b005b60007f780e9d63000000000000000000000000000000000000000000000000000000007bffffffffffffffffffffffffffffffffffffffffffffffffffffffff1916827bffffffffffffffffffffffffffffffffffffffffffffffffffffffff191614806107e657506107e582612390565b5b9050919050565b600f5481565b6060600080546108029061419a565b80601f016020809104026020016040519081016040528092919081815260200182805461082e9061419a565b801561087b5780601f106108505761010080835404028352916020019161087b565b820191906000526020600020905b81548152906001019060200180831161085e57829003601f168201915b5050505050905090565b600061089082612472565b6108cf576040517f08c379a00000000000000000000000000000000000000000000000000000000081526004016108c69061423e565b60405180910390fd5b6004600083815260200190815260200160002060009054906101000a900473ffffffffffffffffffffffffffffffffffffffff169050919050565b6000610915826110f2565b90508073ffffffffffffffffffffffffffffffffffffffff168373ffffffffffffffffffffffffffffffffffffffff161415610986576040517f08c379a000000000000000000000000000000000000000000000000000000000815260040161097d906142d0565b60405180910390fd5b8073ffffffffffffffffffffffffffffffffffffffff166109a56124de565b73ffffffffffffffffffffffffffffffffffffffff1614806109d457506109d3816109ce6124de565b612278565b5b610a13576040517f08c379a0000000000000000000000000000000000000000000000000000000008152600401610a0a90614362565b60405180910390fd5b610a1d83836124e6565b505050565b60115481565b6000600880549050905090565b610a46610a406124de565b8261259f565b610a85576040517f08c379a0000000000000000000000000000000000000000000000000000000008152600401610a7c906143f4565b60405180910390fd5b610a9083838361267d565b505050565b60606012805480602002602001604051908101604052809291908181526020016000905b82821015610d1557838290600052602060002090600702016040518060e0016040529081600082015481526020016001820160009054906101000a900473ffffffffffffffffffffffffffffffffffffffff1673ffffffffffffffffffffffffffffffffffffffff1673ffffffffffffffffffffffffffffffffffffffff16815260200160028201548152602001600382018054610b569061419a565b80601f0160208091040260200160405190810160405280929190818152602001828054610b829061419a565b8015610bcf5780601f10610ba457610100808354040283529160200191610bcf565b820191906000526020600020905b815481529060010190602001808311610bb257829003601f168201915b50505050508152602001600482018054610be89061419a565b80601f0160208091040260200160405190810160405280929190818152602001828054610c149061419a565b8015610c615780601f10610c3657610100808354040283529160200191610c61565b820191906000526020600020905b815481529060010190602001808311610c4457829003601f168201915b50505050508152602001600582018054610c7a9061419a565b80601f0160208091040260200160405190810160405280929190818152602001828054610ca69061419a565b8015610cf35780601f10610cc857610100808354040283529160200191610cf3565b820191906000526020600020905b815481529060010190602001808311610cd657829003601f168201915b5050505050815260200160068201548152505081526020019060010190610ab9565b50505050905090565b6000610d29836111a4565b8210610d6a576040517f08c379a0000000000000000000000000000000000000000000000000000000008152600401610d6190614486565b60405180910390fd5b600660008473ffffffffffffffffffffffffffffffffffffffff1673ffffffffffffffffffffffffffffffffffffffff168152602001908152602001600020600083815260200190815260200160002054905092915050565b600e5481565b610de483838360405180602001604052806000815250611eb3565b505050565b600d60009054906101000a900473ffffffffffffffffffffffffffffffffffffffff1681565b6000610e19610a28565b8210610e5a576040517f08c379a0000000000000000000000000000000000000000000000000000000008152600401610e5190614518565b60405180910390fd5b60088281548110610e6e57610e6d614538565b5b90600052602060002001549050919050565b610e88613654565b6013600183610e979190614596565b81548110610ea857610ea7614538565b5b90600052602060002090600702016040518060e0016040529081600082015481526020016001820160009054906101000a900473ffffffffffffffffffffffffffffffffffffffff1673ffffffffffffffffffffffffffffffffffffffff1673ffffffffffffffffffffffffffffffffffffffff16815260200160028201548152602001600382018054610f3b9061419a565b80601f0160208091040260200160405190810160405280929190818152602001828054610f679061419a565b8015610fb45780601f10610f8957610100808354040283529160200191610fb4565b820191906000526020600020905b815481529060010190602001808311610f9757829003601f168201915b50505050508152602001600482018054610fcd9061419a565b80601f0160208091040260200160405190810160405280929190818152602001828054610ff99061419a565b80156110465780601f1061101b57610100808354040283529160200191611046565b820191906000526020600020905b81548152906001019060200180831161102957829003601f168201915b5050505050815260200160058201805461105f9061419a565b80601f016020809104026020016040519081016040528092919081815260200182805461108b9061419a565b80156110d85780601f106110ad576101008083540402835291602001916110d8565b820191906000526020600020905b8154815290600101906020018083116110bb57829003601f168201915b505050505081526020016006820154815250509050919050565b6000806002600084815260200190815260200160002060009054906101000a900473ffffffffffffffffffffffffffffffffffffffff169050600073ffffffffffffffffffffffffffffffffffffffff168173ffffffffffffffffffffffffffffffffffffffff16141561119b576040517f08c379a00000000000000000000000000000000000000000000000000000000081526004016111929061463c565b60405180910390fd5b80915050919050565b60008073ffffffffffffffffffffffffffffffffffffffff168273ffffffffffffffffffffffffffffffffffffffff161415611215576040517f08c379a000000000000000000000000000000000000000000000000000000000815260040161120c906146ce565b60405180910390fd5b600360008373ffffffffffffffffffffffffffffffffffffffff1673ffffffffffffffffffffffffffffffffffffffff168152602001908152602001600020549050919050565b6112646128d9565b61126e6000612957565b565b60105481565b6011543410156112bb576040517f08c379a00000000000000000000000000000000000000000000000000000000081526004016112b29061473a565b60405180910390fd5b6000600b836040516112cd9190614796565b908152602001604051809103902060009054906101000a900460ff1660ff161461132c576040517f08c379a0000000000000000000000000000000000000000000000000000000008152600401611323906147f9565b60405180910390fd5b611334611649565b73ffffffffffffffffffffffffffffffffffffffff163373ffffffffffffffffffffffffffffffffffffffff1614156113a2576040517f08c379a000000000000000000000000000000000000000000000000000000000815260040161139990614865565b60405180910390fd5b60006064600e54346113b49190614885565b6113be919061490e565b90506113ec600d60009054906101000a900473ffffffffffffffffffffffffffffffffffffffff1682612a1d565b6114086113f7611649565b82346114039190614596565b612a1d565b600f600081548092919061141b9061493f565b919050555060136040518060e00160405280600f5481526020013373ffffffffffffffffffffffffffffffffffffffff1681526020018481526020018781526020018681526020018581526020014281525090806001815401808255809150506001900390600052602060002090600702016000909190919091506000820151816000015560208201518160010160006101000a81548173ffffffffffffffffffffffffffffffffffffffff021916908373ffffffffffffffffffffffffffffffffffffffff16021790555060408201518160020155606082015181600301908051906020019061150d9291906136a7565b50608082015181600401908051906020019061152a9291906136a7565b5060a08201518160050190805190602001906115479291906136a7565b5060c0820151816006015550503373ffffffffffffffffffffffffffffffffffffffff167fb9508407a6eccb191d8da3286f4173697cf95604e9ea192fe5ab7c862b5221f6600f543486426040516115a29493929190614988565b60405180910390a26115b633600f54612a98565b6001600b846040516115c89190614796565b908152602001604051809103902060006101000a81548160ff021916908360ff16021790555033600c6000600f54815260200190815260200160002060006101000a81548173ffffffffffffffffffffffffffffffffffffffff021916908373ffffffffffffffffffffffffffffffffffffffff1602179055505050505050565b6000600a60009054906101000a900473ffffffffffffffffffffffffffffffffffffffff16905090565b6060600180546116829061419a565b80601f01602080910402602001604051908101604052809291908181526020018280546116ae9061419a565b80156116fb5780601f106116d0576101008083540402835291602001916116fb565b820191906000526020600020905b8154815290600101906020018083116116de57829003601f168201915b5050505050905090565b60136001826117149190614596565b8154811061172557611724614538565b5b906000526020600020906007020160020154341015611779576040517f08c379a000000000000000000000000000000000000000000000000000000000815260040161177090614a20565b60405180910390fd5b60136001826117889190614596565b8154811061179957611798614538565b5b906000526020600020906007020160010160009054906101000a900473ffffffffffffffffffffffffffffffffffffffff1673ffffffffffffffffffffffffffffffffffffffff163373ffffffffffffffffffffffffffffffffffffffff161415611839576040517f08c379a000000000000000000000000000000000000000000000000000000000815260040161183090614a8c565b60405180910390fd5b60006064600e543461184b9190614885565b611855919061490e565b9050611883600d60009054906101000a900473ffffffffffffffffffffffffffffffffffffffff1682612a1d565b6118e960136001846118959190614596565b815481106118a6576118a5614538565b5b906000526020600020906007020160010160009054906101000a900473ffffffffffffffffffffffffffffffffffffffff1682346118e49190614596565b612a1d565b601060008154809291906118fc9061493f565b919050555060126040518060e0016040528060105481526020013373ffffffffffffffffffffffffffffffffffffffff16815260200134815260200160136001866119479190614596565b8154811061195857611957614538565b5b906000526020600020906007020160030180546119749061419a565b80601f01602080910402602001604051908101604052809291908181526020018280546119a09061419a565b80156119ed5780601f106119c2576101008083540402835291602001916119ed565b820191906000526020600020905b8154815290600101906020018083116119d057829003601f168201915b505050505081526020016013600186611a069190614596565b81548110611a1757611a16614538565b5b90600052602060002090600702016004018054611a339061419a565b80601f0160208091040260200160405190810160405280929190818152602001828054611a5f9061419a565b8015611aac5780601f10611a8157610100808354040283529160200191611aac565b820191906000526020600020905b815481529060010190602001808311611a8f57829003601f168201915b505050505081526020016013600186611ac59190614596565b81548110611ad657611ad5614538565b5b90600052602060002090600702016005018054611af29061419a565b80601f0160208091040260200160405190810160405280929190818152602001828054611b1e9061419a565b8015611b6b5780601f10611b4057610100808354040283529160200191611b6b565b820191906000526020600020905b815481529060010190602001808311611b4e57829003601f168201915b505050505081526020014281525090806001815401808255809150506001900390600052602060002090600702016000909190919091506000820151816000015560208201518160010160006101000a81548173ffffffffffffffffffffffffffffffffffffffff021916908373ffffffffffffffffffffffffffffffffffffffff160217905550604082015181600201556060820151816003019080519060200190611c199291906136a7565b506080820151816004019080519060200190611c369291906136a7565b5060a0820151816005019080519060200190611c539291906136a7565b5060c0820151816006015550503373ffffffffffffffffffffffffffffffffffffffff167fb9508407a6eccb191d8da3286f4173697cf95604e9ea192fe5ab7c862b5221f6601054346013600187611cab9190614596565b81548110611cbc57611cbb614538565b5b906000526020600020906007020160050142604051611cde9493929190614b41565b60405180910390a2336013600184611cf69190614596565b81548110611d0757611d06614538565b5b906000526020600020906007020160010160006101000a81548173ffffffffffffffffffffffffffffffffffffffff021916908373ffffffffffffffffffffffffffffffffffffffff1602179055505050565b611d6c611d656124de565b8383612ab6565b5050565b6000808211611db4576040517f08c379a0000000000000000000000000000000000000000000000000000000008152600401611dab90614bd9565b60405180910390fd5b6013600184611dc39190614596565b81548110611dd457611dd3614538565b5b906000526020600020906007020160010160009054906101000a900473ffffffffffffffffffffffffffffffffffffffff1673ffffffffffffffffffffffffffffffffffffffff163373ffffffffffffffffffffffffffffffffffffffff1614611e73576040517f08c379a0000000000000000000000000000000000000000000000000000000008152600401611e6a90614a8c565b60405180910390fd5b816013600185611e839190614596565b81548110611e9457611e93614538565b5b9060005260206000209060070201600201819055506001905092915050565b611ec4611ebe6124de565b8361259f565b611f03576040517f08c379a0000000000000000000000000000000000000000000000000000000008152600401611efa906143f4565b60405180910390fd5b611f0f84848484612c23565b50505050565b6060611f2082612472565b611f5f576040517f08c379a0000000000000000000000000000000000000000000000000000000008152600401611f5690614c6b565b60405180910390fd5b6000611f69612c7f565b90506000815111611f895760405180602001604052806000815250611fb4565b80611f9384612c96565b604051602001611fa4929190614c8b565b6040516020818303038152906040525b915050919050565b600c6020528060005260406000206000915054906101000a900473ffffffffffffffffffffffffffffffffffffffff1681565b60606013805480602002602001604051908101604052809291908181526020016000905b8282101561226f57838290600052602060002090600702016040518060e0016040529081600082015481526020016001820160009054906101000a900473ffffffffffffffffffffffffffffffffffffffff1673ffffffffffffffffffffffffffffffffffffffff1673ffffffffffffffffffffffffffffffffffffffff168152602001600282015481526020016003820180546120b09061419a565b80601f01602080910402602001604051908101604052809291908181526020018280546120dc9061419a565b80156121295780601f106120fe57610100808354040283529160200191612129565b820191906000526020600020905b81548152906001019060200180831161210c57829003601f168201915b505050505081526020016004820180546121429061419a565b80601f016020809104026020016040519081016040528092919081815260200182805461216e9061419a565b80156121bb5780601f10612190576101008083540402835291602001916121bb565b820191906000526020600020905b81548152906001019060200180831161219e57829003601f168201915b505050505081526020016005820180546121d49061419a565b80601f01602080910402602001604051908101604052809291908181526020018280546122009061419a565b801561224d5780601f106122225761010080835404028352916020019161224d565b820191906000526020600020905b81548152906001019060200180831161223057829003601f168201915b5050505050815260200160068201548152505081526020019060010190612013565b50505050905090565b6000600560008473ffffffffffffffffffffffffffffffffffffffff1673ffffffffffffffffffffffffffffffffffffffff16815260200190815260200160002060008373ffffffffffffffffffffffffffffffffffffffff1673ffffffffffffffffffffffffffffffffffffffff16815260200190815260200160002060009054906101000a900460ff16905092915050565b6123146128d9565b600073ffffffffffffffffffffffffffffffffffffffff168173ffffffffffffffffffffffffffffffffffffffff161415612384576040517f08c379a000000000000000000000000000000000000000000000000000000000815260040161237b90614d21565b60405180910390fd5b61238d81612957565b50565b60007f80ac58cd000000000000000000000000000000000000000000000000000000007bffffffffffffffffffffffffffffffffffffffffffffffffffffffff1916827bffffffffffffffffffffffffffffffffffffffffffffffffffffffff1916148061245b57507f5b5e139f000000000000000000000000000000000000000000000000000000007bffffffffffffffffffffffffffffffffffffffffffffffffffffffff1916827bffffffffffffffffffffffffffffffffffffffffffffffffffffffff1916145b8061246b575061246a82612df7565b5b9050919050565b60008073ffffffffffffffffffffffffffffffffffffffff166002600084815260200190815260200160002060009054906101000a900473ffffffffffffffffffffffffffffffffffffffff1673ffffffffffffffffffffffffffffffffffffffff1614159050919050565b600033905090565b816004600083815260200190815260200160002060006101000a81548173ffffffffffffffffffffffffffffffffffffffff021916908373ffffffffffffffffffffffffffffffffffffffff160217905550808273ffffffffffffffffffffffffffffffffffffffff16612559836110f2565b73ffffffffffffffffffffffffffffffffffffffff167f8c5be1e5ebec7d5bd14f71427d1e84f3dd0314c0f7b2291e5b200ac8c7c3b92560405160405180910390a45050565b60006125aa82612472565b6125e9576040517f08c379a00000000000000000000000000000000000000000000000000000000081526004016125e090614db3565b60405180910390fd5b60006125f4836110f2565b90508073ffffffffffffffffffffffffffffffffffffffff168473ffffffffffffffffffffffffffffffffffffffff16148061266357508373ffffffffffffffffffffffffffffffffffffffff1661264b84610885565b73ffffffffffffffffffffffffffffffffffffffff16145b8061267457506126738185612278565b5b91505092915050565b8273ffffffffffffffffffffffffffffffffffffffff1661269d826110f2565b73ffffffffffffffffffffffffffffffffffffffff16146126f3576040517f08c379a00000000000000000000000000000000000000000000000000000000081526004016126ea90614e45565b60405180910390fd5b600073ffffffffffffffffffffffffffffffffffffffff168273ffffffffffffffffffffffffffffffffffffffff161415612763576040517f08c379a000000000000000000000000000000000000000000000000000000000815260040161275a90614ed7565b60405180910390fd5b61276e838383612e61565b6127796000826124e6565b6001600360008573ffffffffffffffffffffffffffffffffffffffff1673ffffffffffffffffffffffffffffffffffffffff16815260200190815260200160002060008282546127c99190614596565b925050819055506001600360008473ffffffffffffffffffffffffffffffffffffffff1673ffffffffffffffffffffffffffffffffffffffff16815260200190815260200160002060008282546128209190614ef7565b92505081905550816002600083815260200190815260200160002060006101000a81548173ffffffffffffffffffffffffffffffffffffffff021916908373ffffffffffffffffffffffffffffffffffffffff160217905550808273ffffffffffffffffffffffffffffffffffffffff168473ffffffffffffffffffffffffffffffffffffffff167fddf252ad1be2c89b69c2b068fc378daa952ba7f163c4a11628f55a4df523b3ef60405160405180910390a4505050565b6128e16124de565b73ffffffffffffffffffffffffffffffffffffffff166128ff611649565b73ffffffffffffffffffffffffffffffffffffffff1614612955576040517f08c379a000000000000000000000000000000000000000000000000000000000815260040161294c90614f99565b60405180910390fd5b565b6000600a60009054906101000a900473ffffffffffffffffffffffffffffffffffffffff16905081600a60006101000a81548173ffffffffffffffffffffffffffffffffffffffff021916908373ffffffffffffffffffffffffffffffffffffffff1602179055508173ffffffffffffffffffffffffffffffffffffffff168173ffffffffffffffffffffffffffffffffffffffff167f8be0079c531659141344cd1fd0a4f28419497f9722a3daafe3b4186f6b6457e060405160405180910390a35050565b60008273ffffffffffffffffffffffffffffffffffffffff1682604051612a4390614fea565b60006040518083038185875af1925050503d8060008114612a80576040519150601f19603f3d011682016040523d82523d6000602084013e612a85565b606091505b5050905080612a9357600080fd5b505050565b612ab2828260405180602001604052806000815250612f75565b5050565b8173ffffffffffffffffffffffffffffffffffffffff168373ffffffffffffffffffffffffffffffffffffffff161415612b25576040517f08c379a0000000000000000000000000000000000000000000000000000000008152600401612b1c9061504b565b60405180910390fd5b80600560008573ffffffffffffffffffffffffffffffffffffffff1673ffffffffffffffffffffffffffffffffffffffff16815260200190815260200160002060008473ffffffffffffffffffffffffffffffffffffffff1673ffffffffffffffffffffffffffffffffffffffff16815260200190815260200160002060006101000a81548160ff0219169083151502179055508173ffffffffffffffffffffffffffffffffffffffff168373ffffffffffffffffffffffffffffffffffffffff167f17307eab39ab6107e8899845ad3d59bd9653f200f220920489ca2b5937696c3183604051612c1691906137fe565b60405180910390a3505050565b612c2e84848461267d565b612c3a84848484612fd0565b612c79576040517f08c379a0000000000000000000000000000000000000000000000000000000008152600401612c70906150dd565b60405180910390fd5b50505050565b606060405180602001604052806000815250905090565b60606000821415612cde576040518060400160405280600181526020017f30000000000000000000000000000000000000000000000000000000000000008152509050612df2565b600082905060005b60008214612d10578080612cf99061493f565b915050600a82612d09919061490e565b9150612ce6565b60008167ffffffffffffffff811115612d2c57612d2b613d75565b5b6040519080825280601f01601f191660200182016040528015612d5e5781602001600182028036833780820191505090505b5090505b60008514612deb57600182612d779190614596565b9150600a85612d8691906150fd565b6030612d929190614ef7565b60f81b818381518110612da857612da7614538565b5b60200101907effffffffffffffffffffffffffffffffffffffffffffffffffffffffffffff1916908160001a905350600a85612de4919061490e565b9450612d62565b8093505050505b919050565b60007f01ffc9a7000000000000000000000000000000000000000000000000000000007bffffffffffffffffffffffffffffffffffffffffffffffffffffffff1916827bffffffffffffffffffffffffffffffffffffffffffffffffffffffff1916149050919050565b612e6c838383613158565b600073ffffffffffffffffffffffffffffffffffffffff168373ffffffffffffffffffffffffffffffffffffffff161415612eaf57612eaa8161315d565b612eee565b8173ffffffffffffffffffffffffffffffffffffffff168373ffffffffffffffffffffffffffffffffffffffff1614612eed57612eec83826131a6565b5b5b600073ffffffffffffffffffffffffffffffffffffffff168273ffffffffffffffffffffffffffffffffffffffff161415612f3157612f2c81613313565b612f70565b8273ffffffffffffffffffffffffffffffffffffffff168273ffffffffffffffffffffffffffffffffffffffff1614612f6f57612f6e82826133e4565b5b5b505050565b612f7f8383613463565b612f8c6000848484612fd0565b612fcb576040517f08c379a0000000000000000000000000000000000000000000000000000000008152600401612fc2906150dd565b60405180910390fd5b505050565b6000612ff18473ffffffffffffffffffffffffffffffffffffffff16613631565b1561314b578373ffffffffffffffffffffffffffffffffffffffff1663150b7a0261301a6124de565b8786866040518563ffffffff1660e01b815260040161303c9493929190615183565b6020604051808303816000875af192505050801561307857506040513d601f19601f8201168201806040525081019061307591906151e4565b60015b6130fb573d80600081146130a8576040519150601f19603f3d011682016040523d82523d6000602084013e6130ad565b606091505b506000815114156130f3576040517f08c379a00000000000000000000000000000000000000000000000000000000081526004016130ea906150dd565b60405180910390fd5b805181602001fd5b63150b7a0260e01b7bffffffffffffffffffffffffffffffffffffffffffffffffffffffff1916817bffffffffffffffffffffffffffffffffffffffffffffffffffffffff191614915050613150565b600190505b949350505050565b505050565b6008805490506009600083815260200190815260200160002081905550600881908060018154018082558091505060019003906000526020600020016000909190919091505550565b600060016131b3846111a4565b6131bd9190614596565b90506000600760008481526020019081526020016000205490508181146132a2576000600660008673ffffffffffffffffffffffffffffffffffffffff1673ffffffffffffffffffffffffffffffffffffffff168152602001908152602001600020600084815260200190815260200160002054905080600660008773ffffffffffffffffffffffffffffffffffffffff1673ffffffffffffffffffffffffffffffffffffffff168152602001908152602001600020600084815260200190815260200160002081905550816007600083815260200190815260200160002081905550505b6007600084815260200190815260200160002060009055600660008573ffffffffffffffffffffffffffffffffffffffff1673ffffffffffffffffffffffffffffffffffffffff16815260200190815260200160002060008381526020019081526020016000206000905550505050565b600060016008805490506133279190614596565b905060006009600084815260200190815260200160002054905060006008838154811061335757613356614538565b5b90600052602060002001549050806008838154811061337957613378614538565b5b9060005260206000200181905550816009600083815260200190815260200160002081905550600960008581526020019081526020016000206000905560088054806133c8576133c7615211565b5b6001900381819060005260206000200160009055905550505050565b60006133ef836111a4565b905081600660008573ffffffffffffffffffffffffffffffffffffffff1673ffffffffffffffffffffffffffffffffffffffff168152602001908152602001600020600083815260200190815260200160002081905550806007600084815260200190815260200160002081905550505050565b600073ffffffffffffffffffffffffffffffffffffffff168273ffffffffffffffffffffffffffffffffffffffff1614156134d3576040517f08c379a00000000000000000000000000000000000000000000000000000000081526004016134ca9061528c565b60405180910390fd5b6134dc81612472565b1561351c576040517f08c379a0000000000000000000000000000000000000000000000000000000008152600401613513906152f8565b60405180910390fd5b61352860008383612e61565b6001600360008473ffffffffffffffffffffffffffffffffffffffff1673ffffffffffffffffffffffffffffffffffffffff16815260200190815260200160002060008282546135789190614ef7565b92505081905550816002600083815260200190815260200160002060006101000a81548173ffffffffffffffffffffffffffffffffffffffff021916908373ffffffffffffffffffffffffffffffffffffffff160217905550808273ffffffffffffffffffffffffffffffffffffffff16600073ffffffffffffffffffffffffffffffffffffffff167fddf252ad1be2c89b69c2b068fc378daa952ba7f163c4a11628f55a4df523b3ef60405160405180910390a45050565b6000808273ffffffffffffffffffffffffffffffffffffffff163b119050919050565b6040518060e0016040528060008152602001600073ffffffffffffffffffffffffffffffffffffffff16815260200160008152602001606081526020016060815260200160608152602001600081525090565b8280546136b39061419a565b90600052602060002090601f0160209004810192826136d5576000855561371c565b82601f106136ee57805160ff191683800117855561371c565b8280016001018555821561371c579182015b8281111561371b578251825591602001919060010190613700565b5b509050613729919061372d565b5090565b5b8082111561374657600081600090555060010161372e565b5090565b6000604051905090565b600080fd5b600080fd5b60007fffffffff0000000000000000000000000000000000000000000000000000000082169050919050565b6137938161375e565b811461379e57600080fd5b50565b6000813590506137b08161378a565b92915050565b6000602082840312156137cc576137cb613754565b5b60006137da848285016137a1565b91505092915050565b60008115159050919050565b6137f8816137e3565b82525050565b600060208201905061381360008301846137ef565b92915050565b6000819050919050565b61382c81613819565b82525050565b60006020820190506138476000830184613823565b92915050565b600081519050919050565b600082825260208201905092915050565b60005b8381101561388757808201518184015260208101905061386c565b83811115613896576000848401525b50505050565b6000601f19601f8301169050919050565b60006138b88261384d565b6138c28185613858565b93506138d2818560208601613869565b6138db8161389c565b840191505092915050565b6000602082019050818103600083015261390081846138ad565b905092915050565b61391181613819565b811461391c57600080fd5b50565b60008135905061392e81613908565b92915050565b60006020828403121561394a57613949613754565b5b60006139588482850161391f565b91505092915050565b600073ffffffffffffffffffffffffffffffffffffffff82169050919050565b600061398c82613961565b9050919050565b61399c81613981565b82525050565b60006020820190506139b76000830184613993565b92915050565b6139c681613981565b81146139d157600080fd5b50565b6000813590506139e3816139bd565b92915050565b60008060408385031215613a00576139ff613754565b5b6000613a0e858286016139d4565b9250506020613a1f8582860161391f565b9150509250929050565b600080600060608486031215613a4257613a41613754565b5b6000613a50868287016139d4565b9350506020613a61868287016139d4565b9250506040613a728682870161391f565b9150509250925092565b600081519050919050565b600082825260208201905092915050565b6000819050602082019050919050565b613ab181613819565b82525050565b613ac081613981565b82525050565b600082825260208201905092915050565b6000613ae28261384d565b613aec8185613ac6565b9350613afc818560208601613869565b613b058161389c565b840191505092915050565b600060e083016000830151613b286000860182613aa8565b506020830151613b3b6020860182613ab7565b506040830151613b4e6040860182613aa8565b5060608301518482036060860152613b668282613ad7565b91505060808301518482036080860152613b808282613ad7565b91505060a083015184820360a0860152613b9a8282613ad7565b91505060c0830151613baf60c0860182613aa8565b508091505092915050565b6000613bc68383613b10565b905092915050565b6000602082019050919050565b6000613be682613a7c565b613bf08185613a87565b935083602082028501613c0285613a98565b8060005b85811015613c3e5784840389528151613c1f8582613bba565b9450613c2a83613bce565b925060208a01995050600181019050613c06565b50829750879550505050505092915050565b60006020820190508181036000830152613c6a8184613bdb565b905092915050565b600060e083016000830151613c8a6000860182613aa8565b506020830151613c9d6020860182613ab7565b506040830151613cb06040860182613aa8565b5060608301518482036060860152613cc88282613ad7565b91505060808301518482036080860152613ce28282613ad7565b91505060a083015184820360a0860152613cfc8282613ad7565b91505060c0830151613d1160c0860182613aa8565b508091505092915050565b60006020820190508181036000830152613d368184613c72565b905092915050565b600060208284031215613d5457613d53613754565b5b6000613d62848285016139d4565b91505092915050565b600080fd5b600080fd5b7f4e487b7100000000000000000000000000000000000000000000000000000000600052604160045260246000fd5b613dad8261389c565b810181811067ffffffffffffffff82111715613dcc57613dcb613d75565b5b80604052505050565b6000613ddf61374a565b9050613deb8282613da4565b919050565b600067ffffffffffffffff821115613e0b57613e0a613d75565b5b613e148261389c565b9050602081019050919050565b82818337600083830152505050565b6000613e43613e3e84613df0565b613dd5565b905082815260208101848484011115613e5f57613e5e613d70565b5b613e6a848285613e21565b509392505050565b600082601f830112613e8757613e86613d6b565b5b8135613e97848260208601613e30565b91505092915050565b60008060008060808587031215613eba57613eb9613754565b5b600085013567ffffffffffffffff811115613ed857613ed7613759565b5b613ee487828801613e72565b945050602085013567ffffffffffffffff811115613f0557613f04613759565b5b613f1187828801613e72565b935050604085013567ffffffffffffffff811115613f3257613f31613759565b5b613f3e87828801613e72565b9250506060613f4f8782880161391f565b91505092959194509250565b613f64816137e3565b8114613f6f57600080fd5b50565b600081359050613f8181613f5b565b92915050565b60008060408385031215613f9e57613f9d613754565b5b6000613fac858286016139d4565b9250506020613fbd85828601613f72565b9150509250929050565b60008060408385031215613fde57613fdd613754565b5b6000613fec8582860161391f565b9250506020613ffd8582860161391f565b9150509250929050565b600067ffffffffffffffff82111561402257614021613d75565b5b61402b8261389c565b9050602081019050919050565b600061404b61404684614007565b613dd5565b90508281526020810184848401111561406757614066613d70565b5b614072848285613e21565b509392505050565b600082601f83011261408f5761408e613d6b565b5b813561409f848260208601614038565b91505092915050565b600080600080608085870312156140c2576140c1613754565b5b60006140d0878288016139d4565b94505060206140e1878288016139d4565b93505060406140f28782880161391f565b925050606085013567ffffffffffffffff81111561411357614112613759565b5b61411f8782880161407a565b91505092959194509250565b6000806040838503121561414257614141613754565b5b6000614150858286016139d4565b9250506020614161858286016139d4565b9150509250929050565b7f4e487b7100000000000000000000000000000000000000000000000000000000600052602260045260246000fd5b600060028204905060018216806141b257607f821691505b602082108114156141c6576141c561416b565b5b50919050565b7f4552433732313a20617070726f76656420717565727920666f72206e6f6e657860008201527f697374656e7420746f6b656e0000000000000000000000000000000000000000602082015250565b6000614228602c83613858565b9150614233826141cc565b604082019050919050565b600060208201905081810360008301526142578161421b565b9050919050565b7f4552433732313a20617070726f76616c20746f2063757272656e74206f776e6560008201527f7200000000000000000000000000000000000000000000000000000000000000602082015250565b60006142ba602183613858565b91506142c58261425e565b604082019050919050565b600060208201905081810360008301526142e9816142ad565b9050919050565b7f4552433732313a20617070726f76652063616c6c6572206973206e6f74206f7760008201527f6e6572206e6f7220617070726f76656420666f7220616c6c0000000000000000602082015250565b600061434c603883613858565b9150614357826142f0565b604082019050919050565b6000602082019050818103600083015261437b8161433f565b9050919050565b7f4552433732313a207472616e736665722063616c6c6572206973206e6f74206f60008201527f776e6572206e6f7220617070726f766564000000000000000000000000000000602082015250565b60006143de603183613858565b91506143e982614382565b604082019050919050565b6000602082019050818103600083015261440d816143d1565b9050919050565b7f455243373231456e756d657261626c653a206f776e657220696e646578206f7560008201527f74206f6620626f756e6473000000000000000000000000000000000000000000602082015250565b6000614470602b83613858565b915061447b82614414565b604082019050919050565b6000602082019050818103600083015261449f81614463565b9050919050565b7f455243373231456e756d657261626c653a20676c6f62616c20696e646578206f60008201527f7574206f6620626f756e64730000000000000000000000000000000000000000602082015250565b6000614502602c83613858565b915061450d826144a6565b604082019050919050565b60006020820190508181036000830152614531816144f5565b9050919050565b7f4e487b7100000000000000000000000000000000000000000000000000000000600052603260045260246000fd5b7f4e487b7100000000000000000000000000000000000000000000000000000000600052601160045260246000fd5b60006145a182613819565b91506145ac83613819565b9250828210156145bf576145be614567565b5b828203905092915050565b7f4552433732313a206f776e657220717565727920666f72206e6f6e657869737460008201527f656e7420746f6b656e0000000000000000000000000000000000000000000000602082015250565b6000614626602983613858565b9150614631826145ca565b604082019050919050565b6000602082019050818103600083015261465581614619565b9050919050565b7f4552433732313a2062616c616e636520717565727920666f7220746865207a6560008201527f726f206164647265737300000000000000000000000000000000000000000000602082015250565b60006146b8602a83613858565b91506146c38261465c565b604082019050919050565b600060208201905081810360008301526146e7816146ab565b9050919050565b7f457468657220746f6f206c6f7720666f72206d696e74696e6721000000000000600082015250565b6000614724601a83613858565b915061472f826146ee565b602082019050919050565b6000602082019050818103600083015261475381614717565b9050919050565b600081905092915050565b60006147708261384d565b61477a818561475a565b935061478a818560208601613869565b80840191505092915050565b60006147a28284614765565b915081905092915050565b7f54686973204e465420697320616c7265616479206d696e746564210000000000600082015250565b60006147e3601b83613858565b91506147ee826147ad565b602082019050919050565b60006020820190508181036000830152614812816147d6565b9050919050565b7f53616c6573206e6f7420616c6c6f776564210000000000000000000000000000600082015250565b600061484f601283613858565b915061485a82614819565b602082019050919050565b6000602082019050818103600083015261487e81614842565b9050919050565b600061489082613819565b915061489b83613819565b9250817fffffffffffffffffffffffffffffffffffffffffffffffffffffffffffffffff04831182151516156148d4576148d3614567565b5b828202905092915050565b7f4e487b7100000000000000000000000000000000000000000000000000000000600052601260045260246000fd5b600061491982613819565b915061492483613819565b925082614934576149336148df565b5b828204905092915050565b600061494a82613819565b91507fffffffffffffffffffffffffffffffffffffffffffffffffffffffffffffffff82141561497d5761497c614567565b5b600182019050919050565b600060808201905061499d6000830187613823565b6149aa6020830186613823565b81810360408301526149bc81856138ad565b90506149cb6060830184613823565b95945050505050565b7f457468657220746f6f206c6f7720666f72207075726368617365210000000000600082015250565b6000614a0a601b83613858565b9150614a15826149d4565b602082019050919050565b60006020820190508181036000830152614a39816149fd565b9050919050565b7f4f7065726174696f6e204e6f7420416c6c6f7765642100000000000000000000600082015250565b6000614a76601683613858565b9150614a8182614a40565b602082019050919050565b60006020820190508181036000830152614aa581614a69565b9050919050565b60008190508160005260206000209050919050565b60008154614ace8161419a565b614ad88186613858565b94506001821660008114614af35760018114614b0557614b38565b60ff1983168652602086019350614b38565b614b0e85614aac565b60005b83811015614b3057815481890152600182019150602081019050614b11565b808801955050505b50505092915050565b6000608082019050614b566000830187613823565b614b636020830186613823565b8181036040830152614b758185614ac1565b9050614b846060830184613823565b95945050505050565b7f457468657220746f6f206c6f7721000000000000000000000000000000000000600082015250565b6000614bc3600e83613858565b9150614bce82614b8d565b602082019050919050565b60006020820190508181036000830152614bf281614bb6565b9050919050565b7f4552433732314d657461646174613a2055524920717565727920666f72206e6f60008201527f6e6578697374656e7420746f6b656e0000000000000000000000000000000000602082015250565b6000614c55602f83613858565b9150614c6082614bf9565b604082019050919050565b60006020820190508181036000830152614c8481614c48565b9050919050565b6000614c978285614765565b9150614ca38284614765565b91508190509392505050565b7f4f776e61626c653a206e6577206f776e657220697320746865207a65726f206160008201527f6464726573730000000000000000000000000000000000000000000000000000602082015250565b6000614d0b602683613858565b9150614d1682614caf565b604082019050919050565b60006020820190508181036000830152614d3a81614cfe565b9050919050565b7f4552433732313a206f70657261746f7220717565727920666f72206e6f6e657860008201527f697374656e7420746f6b656e0000000000000000000000000000000000000000602082015250565b6000614d9d602c83613858565b9150614da882614d41565b604082019050919050565b60006020820190508181036000830152614dcc81614d90565b9050919050565b7f4552433732313a207472616e73666572206f6620746f6b656e2074686174206960008201527f73206e6f74206f776e0000000000000000000000000000000000000000000000602082015250565b6000614e2f602983613858565b9150614e3a82614dd3565b604082019050919050565b60006020820190508181036000830152614e5e81614e22565b9050919050565b7f4552433732313a207472616e7366657220746f20746865207a65726f2061646460008201527f7265737300000000000000000000000000000000000000000000000000000000602082015250565b6000614ec1602483613858565b9150614ecc82614e65565b604082019050919050565b60006020820190508181036000830152614ef081614eb4565b9050919050565b6000614f0282613819565b9150614f0d83613819565b9250827fffffffffffffffffffffffffffffffffffffffffffffffffffffffffffffffff03821115614f4257614f41614567565b5b828201905092915050565b7f4f776e61626c653a2063616c6c6572206973206e6f7420746865206f776e6572600082015250565b6000614f83602083613858565b9150614f8e82614f4d565b602082019050919050565b60006020820190508181036000830152614fb281614f76565b9050919050565b600081905092915050565b50565b6000614fd4600083614fb9565b9150614fdf82614fc4565b600082019050919050565b6000614ff582614fc7565b9150819050919050565b7f4552433732313a20617070726f766520746f2063616c6c657200000000000000600082015250565b6000615035601983613858565b915061504082614fff565b602082019050919050565b6000602082019050818103600083015261506481615028565b9050919050565b7f4552433732313a207472616e7366657220746f206e6f6e20455243373231526560008201527f63656976657220696d706c656d656e7465720000000000000000000000000000602082015250565b60006150c7603283613858565b91506150d28261506b565b604082019050919050565b600060208201905081810360008301526150f6816150ba565b9050919050565b600061510882613819565b915061511383613819565b925082615123576151226148df565b5b828206905092915050565b600081519050919050565b600082825260208201905092915050565b60006151558261512e565b61515f8185615139565b935061516f818560208601613869565b6151788161389c565b840191505092915050565b60006080820190506151986000830187613993565b6151a56020830186613993565b6151b26040830185613823565b81810360608301526151c4818461514a565b905095945050505050565b6000815190506151de8161378a565b92915050565b6000602082840312156151fa576151f9613754565b5b6000615208848285016151cf565b91505092915050565b7f4e487b7100000000000000000000000000000000000000000000000000000000600052603160045260246000fd5b7f4552433732313a206d696e7420746f20746865207a65726f2061646472657373600082015250565b6000615276602083613858565b915061528182615240565b602082019050919050565b600060208201905081810360008301526152a581615269565b9050919050565b7f4552433732313a20746f6b656e20616c7265616479206d696e74656400000000600082015250565b60006152e2601c83613858565b91506152ed826152ac565b602082019050919050565b60006020820190508181036000830152615311816152d5565b905091905056fea2646970667358221220a4dfeb7e3eb1ed3474e37065c041909a03a04058d298dcc4ed0101fdee7a115a64736f6c634300080b0033",
  "immutableReferences": {},
  "source": "// SPDX-License-Identifier: MIT\r\npragma solidity >=0.7.0 <0.9.0;\r\n\r\nimport \"./ERC721.sol\";\r\nimport \"./ERC721Enumerable.sol\";\r\nimport \"@openzeppelin/contracts/access/Ownable.sol\";\r\n\r\ncontract Doves is ERC721Enumerable, Ownable {\r\n    using Strings for uint256;\r\n    mapping(string => uint8) existingURIs;\r\n    mapping(uint256 => address) public holderOf;\r\n\r\n    address public artist;\r\n    uint256 public royalityFee;\r\n    uint256 public supply = 0;\r\n    uint256 public totalTx = 0;\r\n    uint256 public cost = 0.01 ether;\r\n\r\n    event Sale(\r\n        uint256 id,\r\n        address indexed owner,\r\n        uint256 cost,\r\n        string metadataURI,\r\n        uint256 timestamp\r\n    );\r\n\r\n    struct TransactionStruct {\r\n        uint256 id;\r\n        address owner;\r\n        uint256 cost;\r\n        string title;\r\n        string description;\r\n        string metadataURI;\r\n        uint256 timestamp;\r\n    }\r\n\r\n    TransactionStruct[] transactions;\r\n    TransactionStruct[] minted;\r\n\r\n    constructor(\r\n        string memory _name,\r\n        string memory _symbol,\r\n        uint256 _royalityFee,\r\n        address _artist\r\n    ) ERC721(_name, _symbol) {\r\n        royalityFee = _royalityFee;\r\n        artist = _artist;\r\n    }\r\n\r\n    function payToMint(\r\n        string memory title,\r\n        string memory description,\r\n        string memory metadataURI,\r\n        uint256 salesPrice\r\n    ) external payable {\r\n        require(msg.value >= cost, \"Ether too low for minting!\");\r\n        require(existingURIs[metadataURI] == 0, \"This NFT is already minted!\");\r\n        require(msg.sender != owner(), \"Sales not allowed!\");\r\n\r\n        uint256 royality = (msg.value * royalityFee) / 100;\r\n        payTo(artist, royality);\r\n        payTo(owner(), (msg.value - royality));\r\n\r\n        supply++;\r\n\r\n        minted.push(\r\n            TransactionStruct(\r\n                supply,\r\n                msg.sender,\r\n                salesPrice,\r\n                title,\r\n                description,\r\n                metadataURI,\r\n                block.timestamp\r\n            )\r\n        );\r\n\r\n        emit Sale(supply, msg.sender, msg.value, metadataURI, block.timestamp);\r\n\r\n        _safeMint(msg.sender, supply);\r\n        existingURIs[metadataURI] = 1;\r\n        holderOf[supply] = msg.sender;\r\n    }\r\n\r\n    function payToBuy(uint256 id) external payable {\r\n        require(\r\n            msg.value >= minted[id - 1].cost,\r\n            \"Ether too low for purchase!\"\r\n        );\r\n        require(msg.sender != minted[id - 1].owner, \"Operation Not Allowed!\");\r\n\r\n        uint256 royality = (msg.value * royalityFee) / 100;\r\n        payTo(artist, royality);\r\n        payTo(minted[id - 1].owner, (msg.value - royality));\r\n\r\n        totalTx++;\r\n\r\n        transactions.push(\r\n            TransactionStruct(\r\n                totalTx,\r\n                msg.sender,\r\n                msg.value,\r\n                minted[id - 1].title,\r\n                minted[id - 1].description,\r\n                minted[id - 1].metadataURI,\r\n                block.timestamp\r\n            )\r\n        );\r\n\r\n        emit Sale(\r\n            totalTx,\r\n            msg.sender,\r\n            msg.value,\r\n            minted[id - 1].metadataURI,\r\n            block.timestamp\r\n        );\r\n\r\n        minted[id - 1].owner = msg.sender;\r\n    }\r\n\r\n    function changePrice(uint256 id, uint256 newPrice) external returns (bool) {\r\n        require(newPrice > 0 ether, \"Ether too low!\");\r\n        require(msg.sender == minted[id - 1].owner, \"Operation Not Allowed!\");\r\n\r\n        minted[id - 1].cost = newPrice;\r\n        return true;\r\n    }\r\n\r\n    function payTo(address to, uint256 amount) internal {\r\n        (bool success, ) = payable(to).call{value: amount}(\"\");\r\n        require(success);\r\n    }\r\n\r\n    function getAllNFTs() external view returns (TransactionStruct[] memory) {\r\n        return minted;\r\n    }\r\n\r\n    function getNFT(\r\n        uint256 id\r\n    ) external view returns (TransactionStruct memory) {\r\n        return minted[id - 1];\r\n    }\r\n\r\n    function getAllTransactions()\r\n        external\r\n        view\r\n        returns (TransactionStruct[] memory)\r\n    {\r\n        return transactions;\r\n    }\r\n}\r\n",
  "sourcePath": "C:\\Users\\HP\\Documents\\_projects\\Sandbox\\_02_Ongoing\\doves_nft_marketplace\\src\\contracts\\Doves.sol",
  "compiler": {
    "name": "solc",
    "version": "0.8.11+commit.d7f03943.Emscripten.clang"
  },
  "schemaVersion": "3.4.14",
  "updatedAt": "2023-06-09T16:34:37.676Z",
  "networkType": "ethereum",
  "devdoc": {
    "kind": "dev",
    "methods": {
      "approve(address,uint256)": {
        "details": "See {IERC721-approve}."
      },
      "balanceOf(address)": {
        "details": "See {IERC721-balanceOf}."
      },
      "getApproved(uint256)": {
        "details": "See {IERC721-getApproved}."
      },
      "isApprovedForAll(address,address)": {
        "details": "See {IERC721-isApprovedForAll}."
      },
      "name()": {
        "details": "See {IERC721Metadata-name}."
      },
      "owner()": {
        "details": "Returns the address of the current owner."
      },
      "ownerOf(uint256)": {
        "details": "See {IERC721-ownerOf}."
      },
      "renounceOwnership()": {
        "details": "Leaves the contract without owner. It will not be possible to call `onlyOwner` functions anymore. Can only be called by the current owner. NOTE: Renouncing ownership will leave the contract without an owner, thereby removing any functionality that is only available to the owner."
      },
      "safeTransferFrom(address,address,uint256)": {
        "details": "See {IERC721-safeTransferFrom}."
      },
      "safeTransferFrom(address,address,uint256,bytes)": {
        "details": "See {IERC721-safeTransferFrom}."
      },
      "setApprovalForAll(address,bool)": {
        "details": "See {IERC721-setApprovalForAll}."
      },
      "supportsInterface(bytes4)": {
        "details": "See {IERC165-supportsInterface}."
      },
      "symbol()": {
        "details": "See {IERC721Metadata-symbol}."
      },
      "tokenByIndex(uint256)": {
        "details": "See {IERC721Enumerable-tokenByIndex}."
      },
      "tokenOfOwnerByIndex(address,uint256)": {
        "details": "See {IERC721Enumerable-tokenOfOwnerByIndex}."
      },
      "tokenURI(uint256)": {
        "details": "See {IERC721Metadata-tokenURI}."
      },
      "totalSupply()": {
        "details": "See {IERC721Enumerable-totalSupply}."
      },
      "transferFrom(address,address,uint256)": {
        "details": "See {IERC721-transferFrom}."
      },
      "transferOwnership(address)": {
        "details": "Transfers ownership of the contract to a new account (`newOwner`). Can only be called by the current owner."
      }
    },
    "version": 1
  },
  "userdoc": {
    "kind": "user",
    "methods": {},
    "version": 1
  }
}